:020000040000FA
:1000000078250020150400001D0400001F040000D6
:10001000210400002304000025040000000000006B
:1000200000000000000000000000000027040000A5
:1000300029040000000000002B0400002D04000033
:100040002F0400002F040000C50D0000F10A00007D
:100050002F0400002F0400002F0400002F040000D4
:100060002F0400002F0400002F0400002F040000C4
:100070002F0400002F0400002F0400002F040000B4
:100080002F0400002F0400002F0400002F040000A4
:100090002F0400002F0400002F0400002F04000094
:1000A0002F0400002F0400002F0400002F04000084
:1000B0002F0400002F0400000000000000000000DA
:1000C0002F0400002F0400002F0400002F04000064
:1000D0002F0400002F0400002F0400000000000087
:1000E0000000000000000000000000000000000010
:1000F0000000000000000000000000000000000000
:1001000000000000000000000000000000000000EF
:1001100000000000000000000000000000000000DF
:10040000DFF80CD000F0D0FA004800476116000079
:10041000782500200648804706480047FEE7FEE7AB
:10042000FEE7FEE7FEE7FEE7FEE7FEE7FEE7FEE7A4
:10043000010B000001040000004870470C2B000075
:1004400040EA01039B0703D009E008C9121F08C056
:10045000042AFAD203E011F8013B00F8013B521ED6
:10046000F9D27047421C10F8011B0029FBD1801AF9
:1004700070472DE9FE4F804681EA0300C00F0C460D
:10048000009021F0004123F00045B8EB0200A941A3
:1004900005D24046214690461C460B46024623F0B4
:1004A0000040104347D0270DC7F30A00C3F30A5199
:1004B0000290401A019040286BDAC3F3130040F415
:1004C000801B0098924620B10023D2EB030A63EB15
:1004D0000B0B01985946C0F14002504600F0AFF9AD
:1004E00006460D4650465946019A00F0B7F910EB02
:1004F00008006141002487EA115284EAE7731A4335
:1005000040D0009A62B3019A012A4FEA075215DCE3
:10051000001B61EB02014FF0004202EA0752CDE9F5
:100520000042001C41F5801132462B4600F0EEF9E6
:1005300003B0BDE8F08F40462146F9E7001B61EBB0
:100540000201001C41F5801300185B412018A2F540
:10055000001747EB030140EAD570B6196D4111E071
:100560006D084FEA360645EAC0754FEA0752001B90
:1005700061EB0201001C41F5801149084FEA30008F
:100580000019514132462B4603B0BDE8F04F00F050
:10059000AEB90098012240000023D0EB020263EBC9
:1005A000E073009821464FEAE074B8EB000061EB7D
:1005B0000401E9E783F000435BE781F0004158E77D
:1005C0002DE9FE4F81EA030404F0004421F00041CC
:1005D00000944FF0000B23F0004350EA01045ED07A
:1005E00052EA03045BD0C3F30A54C1F30A552C4406
:1005F000A4F2F3340194A0FB0254C1F3130141F4BB
:100600008011C3F3130343F4801301FB024400FB86
:10061000034E840A970A44EA815447EA8357A4FBAD
:10062000076802958D0A05FB07854FEA932C04FBAA
:100630000C542705029D4FEA065847EA1637B5EBDA
:1006400008056EEB070C870E920E47EA811742EA07
:100650008312A7FB0201B6EB0B0164EB00042B0D28
:1006600043EA0C335E1844EB1C50DA465146E7FB74
:100670000201C5F313044FEA0B3343EA14534FEA64
:100680000432019C43EA0603A4F10C040294009C8A
:10069000CDE900B400F03AF903B0BDE8F08F0020D6
:1006A0000146F9E72DE9F04D81EA030404F0004B1F
:1006B00021F0004514464FF0000A23F0004150EAB3
:1006C000050220D054EA01021DD0C5F30A570246A4
:1006D000C5F31303C1F31300C1F30A5640F48015A8
:1006E00043F48013A7EB0608101BD64608F2FD382A
:1006F00073EB050002D308F1010801E092185B4199
:10070000B8F1000F03DA00200146BDE8F08D0020AB
:100710004FF48011064684460EE0171B73EB050765
:1007200005D3121B63EB050306434CEA010C490891
:100730004FEA300092185B4150EA0107EDD152EACE
:10074000030012D082EA040083EA0501084305D0C1
:10075000101BAB4106D20122002306E000224FF01D
:10076000004302E06FF0010253101AEB06004CEB5D
:10077000085110EB0A0041EB0B01BDE8F04D00F011
:10078000B6B80EB5C10F80EAE0700844CA07002170
:1007900040F233438DE80E000A460B4600F0B6F8EF
:1007A00003B000BD01F0004330B421F0004150EA35
:1007B000010206D00A0DA2F56072C1F31301002AEE
:1007C00002DC30BC00207047440F44EAC104C10081
:1007D000E01830BC00EBC25000F052B82DE9F05FD9
:1007E0000546002092469B468846064681464024A0
:1007F0001BE0284641464746224600F0E7F85346AC
:100800005A46C01A914110D311461846224600F0AC
:1008100016F82D1A67EB01084F46224601200021E9
:1008200000F00DF817EB00094E41201EA4F1010461
:10083000DFDC484631462A464346BDE8F09F202A81
:1008400004DB203A00FA02F1002070479140C2F127
:10085000200320FA03F3194390407047202A06DB57
:10086000CB17203A41FA02F043EAE07306E041FA7E
:1008700002F3D040C2F1200291400843194670476C
:100880000029A8BF7047401C490008BF20F00100A4
:10089000704710B4B0FA80FC00FA0CF050EA010482
:1008A00004BF10BC704749B1CCF1200421FA04F414
:1008B00011FA0CF118BF012121430843A3EB0C01ED
:1008C000CB1D4FEA00614FEA102042BF002010BC50
:1008D000704700EBC35010440029A4BF10BC704700
:1008E000401C490008BF20F0010010BC704710B543
:1008F000141E73F1000408DA401C41F10001921843
:100900005B411A4301D120F0010010BD2DE9F04DEB
:1009100092469B4611B1B1FA81F202E0B0FA80F240
:1009200020329046FFF78BFF04460F4640EA0A004C
:1009300041EA0B0153465A46084313D0114653EA85
:10094000010019D0C8F14002504600F03FF80546BA
:100950000E46504659464246FFF771FF084305D000
:10096000012004E020463946BDE8F08D0020054313
:1009700046EAE0762C4337430A986305E40AA0EB85
:1009800008000022FD0A44EA47540A3002D500203C
:100990000146E9E7010510196941DDE9084500193B
:1009A0006941BDE8F04DA2E7064C074D06E0E0685E
:1009B00040F0010394E8070098471034AC42F6D3A6
:1009C000FFF722FD1C2B00003C2B0000202A04DB3B
:1009D000203A21FA02F00021704721FA02F3D040B8
:1009E000C2F1200291400843194670472DE9F041B9
:1009F00000242DED048B84B06E469FED1C8B9FED83
:100A00001D9B24B1012C06D0022C0BD107E04FF026
:100A10002808292506E04FF02A082B2502E04FF090
:100A20002C082D2541461D2000F0B8F9074629461F
:100A30001D2000F0B3F907EB002000B2FFF7A1FE84
:100A400053EC182BFFF7BCFD53EC192BFFF72AFED4
:100A5000FFF7A8FE46F82400641C032CD1DB68468F
:100A600004B0BDEC048BBDE8F08100000000000084
:100A7000000000400000000080E9DF4010B50521C3
:100A80001D2000F08BF9044606211D2000F086F998
:100A900004EB002000B2FFF774FE9FED081B53EC3F
:100AA000112BFFF78DFD9FED071B53EC112BFFF76B
:100AB000E0FCFFF777FE00EE100A10BD000000001A
:100AC0000000C03F00000000000037401CB50123BB
:100AD0008DF804000020009001AA1D21034801F0B8
:100AE0005FF8002801D000F015FC1CBD202A000092
:100AF0000149024800F00CBD180000200030004001
:100B0000F0B598480023021D01780125101D4FF013
:100B10008056062907D11478240704D10478C4F339
:100B20000314032C02D0062904D00FE08F4F8E4C03
:100B30007C670EE01478240708D10478C4F303140A
:100B4000032C06D0042C04D0052C02D0062907D093
:100B50000EE0D6F84442864FC4F342343C6002E0D3
:100B60001478240704D10478C4F30314032C02D0AE
:100B7000062906D011E07F4C276827F08077276090
:100B80000EE01478240708D10478C4F30314032C6E
:100B900006D0042C04D0052C02D006290AD011E07E
:100BA0004FF08044C4F80C31C4F81031704C241F4D
:100BB000236002E01478240704D10478C4F30314FA
:100BC000032C02D0062905D00CE0694F03246437BA
:100BD0003C600AE01478240704D10478C4F30314B9
:100BE000032C02D006290DD014E0634F05243C608D
:100BF000614C78342560604C083423603F243F1DED
:100C00003C6002E01478240704D10478C4F3031490
:100C1000052C02D0062957D068E058490968584A7F
:100C200011605649091D0968121D116053490831A8
:100C30000968121D116051490C310968121D1160BB
:100C40004E4910310968121D11604C491431096870
:100C5000121D1160494918310968494A2032116052
:100C600046491C310968121D116044492031096848
:100C7000121D1160414924310968121D11603F495C
:100C800028310968121D11603C492C310968121D78
:100C900011603A4930310968394A403211603749A8
:100CA00034310968121D1160344938310968121D48
:100CB000116032493C310968121D11602F494031E1
:100CC0000968121D116002E0117809070ED1007841
:100CD000C0F30310032803D0042801D0052805D150
:100CE000D6F85802274900F04F00086021487438B0
:100CF000016841F470010160BFF34F8FBFF36F8F44
:100D00004FF01021D1F80002002803DBD1F80402D3
:100D1000002822DA1C4A15601C480468002CFCD00C
:100D20001524C1F800420568002DFCD0C1F804422A
:100D300001680029FCD0136001680029FCD0BFF3D2
:100D40004F8F0C48F0380168114A01F4E0611143FB
:100D50000160BFF34F8F00BFFDE70F490D480860EA
:100D6000F0BD0000E00F00F00DF0ADBA00C007408C
:100D70003C050040FCED00E010560040040400106B
:100D800020C50040E40E004004E5014000E40140BD
:100D90000400FA050090D0031400002038B5044682
:100DA0000846FFF793FE01236A462146044800F0F7
:100DB000E5FE08B100F0AEFA9DF8000038BD000075
:100DC000202A00000448017F04480029024901D07C
:100DD00001F0ADBD01F01CBD40000020002000402E
:100DE0000FB41CB50246002007AC00290BD0491EE9
:100DF000CDE90021054B6A462146069800F018F817
:100E0000009A002111701CBC5DF814FB93120000C5
:100E100002E008C8121F08C1002AFAD170477047C3
:100E2000002001E001C1121F002AFBD17047000021
:100E30002DE9FF4F8DB00F460546002606E0252818
:100E40000BD0DDE90F1290476D1C761C2878002826
:100E5000F5D111B03046BDE8F08F0024A246A1467E
:100E60000122EC4900E0044315F8013F203B02FA5F
:100E700003F00842F7D128782A2810D06FF02F020B
:100E80002878A0F13001092914D80AEB8A0102EB75
:100E9000410144F0020400EB010A6D1CF0E701CFB0
:100EA0005FEA000A03D544F40054CAF1000A44F092
:100EB00002046D1C28782E2817D115F8010F44F074
:100EC00004042A280ED06FF02F022878A0F13001F8
:100ED00009290AD809EB890102EB410100EB01095C
:100EE0006D1CF2E757F8049B6D1C28786C280FD016
:100EF00006DC4C2817D068280DD06A2814D104E0ED
:100F0000742810D07A280FD10DE044F400140AE0C0
:100F100044F4801401E044F440146978814202D121
:100F200004F580146D1C6D1C2A786E2A1FD00CDC11
:100F3000632A31D004DC002A8BD0582A11D1A3E0D7
:100F4000642A68D0692A0CD165E0732A2ED004DCAB
:100F50006F2A73D0702A04D19BE0752A6FD0782A4B
:100F60006ED01046DDE90F129047761C50E1C4F3B5
:100F70000250022806D0032809D0042801CF09D046
:100F8000066045E101CFF117C0E9006140E101CF02
:100F900006803DE106703BE117F8040B8DF8000078
:100FA00000208DF80100EB46012003E057F804BB58
:100FB0004FF0FF3061074FF0000102D40DE008F15F
:100FC0000101884649450FDA8045F8DB1BF8081017
:100FD0000029F4D108E008F1010188468142FADBDA
:100FE0001BF808100029F6D1DDE90F23AAEB080051
:100FF0008146214600F036F9304400EB080604E053
:10100000DDE90F121BF8010B9047B8F10108F7D288
:1010100021464846F7E00A21C4F302534FF0000B83
:101020000891022B04D001CFC117032B09D00AE08D
:10103000FF1D27F00707F7E8020108E032E01FE094
:1010400020E000B2C117042B01D140B2C117031E2A
:1010500071F1000307DA4FF0000CD0EB0C006CEBE1
:1010600001012D2302E0230504D52B238DF8243024
:10107000012303E0E30701D02023F7E7984658E077
:101080000A2110E010210EE010204FF0000B089014
:101090000CE010214FF0000B44F004044FF008095D
:1010A000089103E008214FF0000B0891C4F30253AC
:1010B000022B04D001CF0021032B06D006E0FF1D38
:1010C00027F00707F7E8020103E080B2042B00D104
:1010D000C0B24FF0000823072BD5702A07D0DDF8E7
:1010E00020C08CF0100C5CEA0B0C05D00EE0402305
:1010F0008DF82430012308E050EA010306D03023A4
:101100008DF824308DF8252002239846DDF820C084
:101110008CF0080C5CEA0B0C0BD150EA010301D1F6
:10112000630706D530238DF824304FF00108A9F16C
:101130000109582A04D038A20B9208AA0A920BE09F
:101140003AA2F9E75B46089AFFF748FB0B9B9B5CCA
:101150000A9A521E0A92137050EA0102F2D10A98BA
:10116000ADEB000000F1200B600702D524F48034C1
:1011700001E04FF00109D94502DDA9EB0B0000E0C9
:10118000002000EB0B0141440890AAEB010AE003A8
:1011900006D4DDE90F232146504600F063F80644EB
:1011A0004FF0000908E009A911F80900DDE90F1264
:1011B000904709F10109761CC145F4DBE0030CD529
:1011C000DDE90F232146504600F04CF8064404E0C8
:1011D000DDE90F1230209047761C0899481E0890D0
:1011E0000029F5DC08E00A980A990078491C0A9160
:1011F000DDE90F129047761CBBF10001ABF1010B4A
:10120000F1DC21465046DDE90F2300F019F80644D1
:101210006D1C1BE609280100303132333435363776
:101220003839616263646566000000003031323332
:1012300034353637383941424344454600000000D2
:101240002DE9F041044600251E461746880404D4C3
:1012500005E039462020B0476D1C641EF9D52846AC
:10126000BDE8F0812DE9F041044600251E46904678
:10127000C80301D5302700E02027880404D505E005
:1012800041463846B0476D1C641EF9D52846BDE876
:10129000F0814A68002A06D00A68531C0B6010705F
:1012A0004868401E486070470DA1012000F0CAFF49
:1012B00000F022FF00F024FF0028FBD10CA1032046
:1012C00000F0C0FFBFF34F8F10480168104A01F4CF
:1012D000E06111430160BFF34F8F00BFFDE70000E5
:1012E0003A4552524F523A466174616C0D0A000001
:1012F0003A494E464F3A486974207765616B2068D9
:10130000616E646C65720D0A000000000CED00E077
:101310000400FA050EB500210091CDE901106A46DE
:1013200044F20100FFF7C0FF0EBD00F003B800F06B
:1013300009B8000072B602480168491C0160704794
:101340000000002003490868401E086000D162B612
:1013500070470000000000202DE9F04106460868B3
:101360000C46411C4FF0A0474FF0010506D005FA8E
:1013700000F1C7F80815206800F04AFD6068411CBC
:1013800002D0002100F03BFD3079204901EB4010F4
:10139000A169007F00283068C0F8241525D0607D41
:1013A000227D31681043C1F86C05D4E90012306821
:1013B000C0F80C15C0F8142524E0A068411C02D028
:1013C000002100F01CFDE068411C05D08540C7F8F5
:1013D0000855E06800F01CFDD4E902123068C0F83E
:1013E0000825C0F81015BDE8F081607D217D3268C8
:1013F0000843C2F86C05D4E900123068C0F814251F
:10140000C0F80C15207D0128D7D0ECE74000002063
:10141000002901DA002070470268114401600120B0
:101420007047000070B5461C0D4601240020FFF7F0
:101430007CFF114A10682860D2E900109568081AEC
:101440002B1A701C5B1C98420FD963B10B480C4BD4
:10145000294000681B6802EB810163F39F20C8608C
:101460001068401C1060002401E088191060002002
:10147000FFF75DFF204670BD60010020642A000078
:1014800010000020034803C8814201D101207047A9
:10149000002070476001002070B50E4604460079B8
:1014A00018494FF4A27501EB4010017F2068A1B1EB
:1014B0004FF4887100F05BFF4FF49071206800F0EA
:1014C00056FF4FF49271206800F051FF29462068C2
:1014D00000F04DFF0C49206809E04FF48E7100F0D8
:1014E00035FF2946206800F031FF08492068C0F820
:1014F0000413206800F0D9FA3146BDE8704000F0CE
:10150000B8BA000040000020100302008000020072
:101510002DE9FF470D464FF492770446394600F017
:1015200005FF4FF002094FF001084FF4827640B1F9
:101530003946204600F0FFFE3146204600F0F6FE18
:10154000B0B3B2463146204600F0F0FE4FF0FF3611
:10155000002770B35146204600F0EDFE05F10C0067
:1015600001AB07C883E8070095F8230078B1287B12
:1015700001282DD0D4F84C05C0B28DF80600287B88
:10158000022828D0D4F84C05C0B28DF807004FF4DB
:10159000B071204600F0CFFE4FF4AE71204600F04F
:1015A000CAFE95F8250080B395F8230068BB3CE09F
:1015B00000E013E0A868C4F80803C5F80890A8681C
:1015C000C4F80403C4F82080C4F81480BDE8FF8781
:1015D000D4F83C05D0E7D4F83C05D5E74FF4A47126
:1015E000204600F0A8FE287B80B14FF40070C4F8BC
:1015F0000002801CA860C4F80863A868C4F804034B
:10160000C4F80880C4F82080E0E708E005F10C0089
:1016100001AB07C883E8070095F8250028B900202A
:10162000C4F80002AF60C4F80863D4F8C404C4F876
:10163000C404810702D58DF8008006E0400702D57A
:101640008DF8009001E08DF8007095F8250008B93C
:1016500085F82470D5E9002168469047B6E7000078
:101660002DED068B82B003214FF0A040724AC2F8E4
:101670000017D0F804154FF000728A43C0F808250F
:1016800001F00071C0F80C15002000F03DFE08B11B
:10169000FFF740FE69A1032000F0D4FD00F030FD0B
:1016A0000028FBD100F058FF6CA1032000F0CAFD18
:1016B00000F026FD0028FBD16EA000250068022363
:1016C000CDE9005001AA1D216B4800F069FA08B16C
:1016D000FFF720FE694C204600F034F968A1032092
:1016E00000F0B0FD00F00CFD0028FBD120208DF8AB
:1016F000040047208DF80500022301AA1D215E4841
:10170000009500F04DFA08B1FFF704FE204600F006
:1017100019F965A1032000F095FDDFED6B8A00BF8C
:1017200000F0EEFC0028FBD1FFF7A8F9B0EE408AEC
:10173000FFF75CF990ED00AAFFF758F9D0ED019A98
:10174000FFF754F990ED029AB5EEC08AF1EE10FA67
:10175000BDEEC80AB8EEC00A02DD38EE400A01E06C
:1017600030EE480A59A1032020EE280ABDEEC00A37
:1017700010EE103ABDEEC80A10EE102A00F088FDF7
:10178000B5EEC0AAF1EE10FABDEECA0AB8EEC00A74
:1017900002DD3AEE400A01E030EE4A0A57A103208A
:1017A00020EE280ABDEEC00A10EE103ABDEECA0ABD
:1017B00010EE102A00F06CFDF5EEC09AF1EE10FA72
:1017C000BDEEE90AB8EEC00A02DD39EEC00A01E05A
:1017D00030EE690A4FA1032020EE280ABDEEC00AB0
:1017E00010EE103ABDEEE90A10EE102A00F050FD9E
:1017F000B5EEC09AF1EE10FABDEEC90AB8EEC00A15
:1018000002DD39EE400A01E030EE490A47A103202B
:1018100020EE280ABDEEC00A10EE103ABDEEC90A4D
:1018200010EE102A00F034FD00F06AFC0028FBD115
:10183000204600F087F877E7640000504150503AA6
:10184000494E464F3A526561642066726F6D204C76
:10185000534D333033440D0A000000004150503ADC
:10186000494E464F3A496E697469616C697A65649C
:101870002E0D0A0024900000202A000020A107005D
:101880004150503A494E464F3A54656D7065726109
:1018900074757265206D656173737572656D656EC3
:1018A00074206F6E2E0D0A004150503A494E464F3B
:1018B0003A0D0A20416363656C65726F6D657465EE
:1018C00072206F6E2E0D0A000000C8424150503A3F
:1018D000494E464F3A54656D706572617475726118
:1018E00020772043656C736A75737A6163683A2563
:1018F000642E253032640D0A000000004150503A39
:10190000494E464F3A583A2725642E2530326427EF
:101910000D0A00004150503A494E464F3A593A2775
:1019200025642E25303264270D0A00004150503ABC
:10193000494E464F3A5A3A2725642E2530326427BD
:101940000D0A000000283ED01F49204A096800BF48
:1019500000BF00BF00BF00BF00BF00BF00BF91427B
:101960002FD000BF00BF00BF00BF00BF00BF00BF3F
:1019700000BF00BF00BF00BF00BF00BF00BF00BF6F
:1019800000BF00BF00BF00BF00BF00BF00BF00BF5F
:1019900000BF00BF00BF00BF00BF00BF00BF00BF4F
:1019A00000BF00BF00BF00BF00BF00BF00BF00BF3F
:1019B00000BF00BF00BF00BF00BF00BF00BF00BF2F
:1019C00000BF401EC3D17047140000200024F40063
:1019D00000283ED01F49204A096800BF00BF00BF51
:1019E00000BF00BF00BF00BF00BF91422FD000BFAB
:1019F00000BF00BF00BF00BF00BF00BF00BF00BFEF
:101A000000BF00BF00BF00BF00BF00BF00BF00BFDE
:101A100000BF00BF00BF00BF00BF00BF00BF00BFCE
:101A200000BF00BF00BF00BF00BF00BF00BF00BFBE
:101A300000BF00BF00BF00BF00BF00BF00BF00BFAE
:101A400000BF00BF00BF00BF00BF00BF00BF401EFF
:101A5000C3D17047140000200024F40000F01F02DE
:101A6000012191404009800000F1E020C0F8801180
:101A700070474907090E002806DA00F00F0202F14C
:101A8000E02282F8141D03E000F1E02282F8001445
:101A900000F01F02012191404009800000F1E02088
:101AA000C0F88012C0F800117047000B40B27047B8
:101AB0000121B1EB507F01D1012070470020704718
:101AC0000121B1EB507F01D1012070470020704708
:101AD0000179064A01EB8101006802EBC10106228F
:101AE000C0F80025022081F822007047180000206D
:101AF00070B506460D4600791F4900EB800001EBEA
:101B0000C00494F8220008B1082070BD0020C4E988
:101B10000023A06084F8250084F82400A87B84F8C2
:101B20002700687B10B1284600F0C0FC296840F20D
:101B30000C60890001F1A041C1F8000769688900C3
:101B400001F1A041C1F80007D5E900123068C0F8E2
:101B50000815C0F80C25A968C0F82415206828B11C
:101B60003068297B000B40B2FFF783FF012084F827
:101B70002200002070BD0000180000203EB5074D77
:101B80002C68AD6800948DF80110019202958DF8D3
:101B900002300022694600F015F83EBD382A0000E8
:101BA0003EB500250095069C8DF8011002958DF834
:101BB000023001920CB1202200E00022694600F0C0
:101BC00001F83EBD30B40379064C03EB830304EB0C
:101BD000C304006813460A460146204630BC00F0A4
:101BE000D1BC0000180000202DE9F0410546007925
:101BF000164F904607EB40140E46E07E10B10820C9
:101C0000BDE8F081707F20772846FFF7A5FB5FEAEB
:101C1000080060603169216003D0317F2846FFF7FA
:101C20003BFC287907EB4010007F0028286801D092
:101C3000082100E00421C0F800150020E07520769E
:101C4000A0750121E176A076DAE7000040000020CF
:101C50002DE9F047054600793F4E904606EB4014CB
:101C60000F46207F18B10846FFF72AFF30B12846FB
:101C700000F074F820B11120BDE8F0871020FBE7D8
:101C800084F81680A7600027A78228794FF0010802
:101C900006EB40143E46207F0028286825D04FF4EC
:101CA0009079494600F063FB4FF4AC7A51462868BE
:101CB00000F05DFB2868A17DA268C0F84425C0F84B
:101CC00048152868C0F808806068F0B94946286857
:101CD00000F048FB80465146286800F043FB58EA74
:101CE0000001F3D058BBA7750FE04FF48E7A514630
:101CF00000F02CFB2868C0F808802146286800F016
:101D000061FD61684FF4807089B13046B4E7514697
:101D1000286800F016FB10B9A08A4845F7D1A08AC0
:101D2000484505D02146286800F04CFD00E081467A
:101D3000A08AA17D8842EAD3A08A484501D10F2616
:101D4000D1E75146286800F0FCFA0028F9D028684D
:101D5000C0F80C80C7E7000040000020007904496B
:101D600001EB4010807D002800D00120704700006A
:101D70004000002070B5044600791149002601EBAF
:101D8000401520682A7FC0F80065686888B120790E
:101D900001EB4010007F0028206801D0094901E0D4
:101DA00008498C39C0F808132068FFF77EFEFFF75A
:101DB00055FE204600F0E2FAEE766E6070BD00003F
:101DC000400000201003020070B541EA4201DDE945
:101DD00004564FF0A04441EA830141EA052104EB97
:101DE000800041EA0641C0F8001770BD1CB5002113
:101DF00000910B4601220191FFF7E6FF1CBD1CB5C7
:101E000000220B46009211460192FFF7DDFF1CBD38
:101E10001CB5002100910B46012201911146FFF7EC
:101E2000D3FF1CBD4FF0A04201218140C2F808152C
:101E30007047000000487047AD1E000030B5184CD8
:101E4000054689B0207828B16078854202D100200B
:101E500009B030BD202213496846FEF7F1FA002090
:101E60008DF81400062000900820019005200390B2
:101E7000072002904FF0EB7006900948001DFFF715
:101E800079FF0DB1002200E0074A05486946001DB0
:101E9000FFF7AAFE0028DBD1012020706570D6E78D
:101EA00004000020442A0000012800002DE9F04F22
:101EB000C1B00D004FF0000140914D984B991C4668
:101EC000174601EB000B01D00A2000E000208046FD
:101ED00000F0B6FA00287CD16E46BCB9409840AA02
:101EE0003118284600F0C8FA002872D03846FEF7AC
:101EF000B9FAC22800D9C220054640982A46304483
:101F00003946FEF79DFA4098284440904FF0200A49
:101F1000409901EB080231320DEB01050DEB020691
:101F2000002002E005F801AB401C4045FAD3002731
:101F30005C4508D305F801AB05F801AB05F801AB2A
:101F400006F801AB2DE04B98844202D24A98005D1E
:101F500002E0211A4C98405C2B4681460246012142
:101F6000880022FA00F000F00F00092801D937306C
:101F700000E03030C1F1010C491E03F80C00EFD233
:101F80009D1C05F801ABFEF757FA016811F809002E
:101F900010F03E0F01D0484600E02E2006F8010B5D
:101FA000641C7F1C102FC3D30D2030700A2070706A
:101FB00085F800A04099684641444331409100F0C3
:101FC00045FA30B100F03CFA18B9002040905C4569
:101FD0009ED341B02046BDE8F08F2DE9F043C7B055
:101FE00000251C46904689464E9F459500F028FAEC
:101FF00000287AD1459805AE311845AA484600F028
:102000003BFA002835D0072F27D2DFE807F004126B
:102010001B35424F5D004046FEF724FA05464598C1
:102020002918FF2919D830442A464146FEF708FAF4
:1020300013E045982368C0F5807130444246FEF7AE
:10204000CFFE09E06068009045982368C0F5807174
:1020500030444246FEF7C4FE0546294645A8FFF730
:10206000D7F9459978B3B1F5807F3ED805A800F03F
:10207000EDF947B0BDE8F083D4E90101CDE90001F5
:1020800045982368C0F5807130444246FEF7A8FEAB
:10209000E2E7201D07C88DE8070045982368C0F5D2
:1020A000807130444246FEF79BFED5E7201D0FC8E5
:1020B0008DE80F0045982368C0F580713044424692
:1020C000FEF78EFEC8E710E004F1080001AD0FC86E
:1020D00085E80F006068009045982368C0F580711E
:1020E00030444246FEF77CFEB6E70020C1E7000020
:1020F00000487047DB1F00000120FFF79FBE000073
:102100002DE9F04F87B0FFF7BDF918B1002007B0F7
:10211000BDE8F08F454ED6E9014704EA070006EB1B
:102120008000A146641CC5680CE000BFC5F389109F
:1021300000EB9550044404EA070006EB8000A1463A
:10214000C568641CA807F1D005F003004FF0000B30
:10215000022805D0AA0A01A8C5F38313002153E081
:1021600004EA070006EB800004F1010A0AEA07040A
:10217000C268381B80004FEA9558001DC5F38913CB
:10218000804521D929490C3138B106EB840400F08F
:10219000FF0CA8EB00000C3404E00C46002108F012
:1021A000FF0C0846C0B2CDE90210CDE9004CD6F8CC
:1021B0001444C5F3C2005946A047404511D108F167
:1021C00003080AEB98042AE0002106EB84000C3097
:1021D0000090CDE901810391C5F3C200D6F8144403
:1021E000EAE760F38F1509EA070006EB8000C56097
:1021F00016E000BF04EA070C06EB8C0C491CDCF867
:102200000CC040F804CB641C9942F3D3C5F3C20060
:102210000093D6F8105401AB5946A84700B174603A
:10222000FFF730F980F0010071E700006001002045
:10223000034AFF23936000231360536000F05CB8EF
:10224000600100202DE9F8430F4F88460446002521
:1022500069462846BE68FFF7E5F8002812D00B480B
:102260000021406861F38200009964F3C50001EA2F
:10227000060265F3891007EB820268F39F20491C70
:10228000D0600091BDE8F88360010020642A00005E
:102290002DE9F84F164C8846064602279A46914685
:1022A00069463846A568FFF7BDF800281ED01148DA
:1022B000C168002060F38201009866F3C50100EA5E
:1022C000050267F3891104EB820268F39F21401C29
:1022D000D16000EA050204EB8202401CC2F80C90B7
:1022E0000090284004EB8000C0F80CA0BDE8F88FF7
:1022F00060010020642A0000024A02F5826203C2E3
:10230000704700006001002070B506460020FFF70E
:1023100095FD040008D1FFF78DFD0546FFF7E8FEA7
:1023200032462946FFF784FF204670BD40580028FA
:1023300000D00120704708B500224250405800905C
:1023400008BD4058002800D00120704708B5002281
:1023500042504058009008BDD0F80403084000D017
:10236000012070474058002800D00120704708B570
:10237000002242504058009008BD000070B503464E
:1023800000791B4901EB40101968027F4FF0FF30C4
:10239000002AD1F80C25D1F81465D1F80855D1F8E8
:1023A000104504D0C1F80C05C1F8140503E0C1F8CC
:1023B0001405C1F80C051968C1F80805C1F8100525
:1023C000501C02D01046FFF711FD701C02D03046A1
:1023D000FFF70CFD601C02D02046FFF707FD681CCC
:1023E00004D02846BDE87040FFF700BD70BD000076
:1023F0004000002070B50546C87D0C4600284FF40B
:10240000847128460AD0FFF7A1FFD5F81805627E2F
:10241000E1688854607E401C607670BDFFF796FFCF
:10242000D5F8180570BD1FB501238DF800308DF863
:1024300008100192D0E90012684690471FBD0000C5
:102440000148FFF78BBC00000800002070B50D4666
:102450000A46014601240648FDF7F2FFEAB20449A4
:102460000448FFF7F5FB00B10024204670BD0000D2
:10247000600000200800002010B5144602004FF054
:1024800001000CD00846136806A24FF48071FEF7D5
:10249000A7FC01462046BDE81040FEF7B9BF002169
:1024A000216010BD5B253038645D00002DE9F041EE
:1024B000044640F20C602168890001F1A041C1F896
:1024C00000076168890001F1A041C1F80007206898
:1024D000FFF7A8FC6068FFF7A5FC216840F20D60DB
:1024E000890001F1A041C1F800076168890001F18C
:1024F000A041C1F800070420FFF76AFA00274FF057
:10250000A04601252179D6F81005C84010F0010F2A
:1025100002D0002F1DD010E0217805FA01F0C6F896
:102520000C050420FFF754FA2068FFF77BFC042019
:10253000FFF74EFA7F1C092FE4DB20798540C6F8AF
:102540000C550420FFF744FA6068BDE8F041FFF73E
:1025500069BCBDE8F08100001FB5094B0FCB8DE8C9
:102560000F00074800231A4669460838FFF7C0FAEB
:1025700008B1FEF7CFFE02480838FFF7A9FA1FBDE1
:10258000282A00002DE9F05F06461F4615460C4636
:102590004FF0000A4FF0080B4FF482795068FFF7B4
:1025A00087FA00287ED04FF0FF30C4F8080396F871
:1025B000240028B1B068C4F804031120BDE8F09FDE
:1025C000780703D4F80601D4012000E0002086F843
:1025D000240095E8070006F10C0383E80700C7F321
:1025E000001086F825006878C4F888054FF48271D9
:1025F0002046FFF7A0FE4FF492712046FFF79BFEA6
:10260000F8074FF0010800D04046C4F85005B8075D
:1026100001D5404600E00020C4F840052878002895
:102620006CD001287DD002284ED0032814D04FF062
:10263000070A380704D42878032801D044F80B800F
:10264000306800286ED0780702D54FF40070B06073
:10265000B068C4F80403B0E0A868FFF729FA08B32B
:102660004FF48070C4F80002A9786868C4F8440583
:10267000C4F848154FF4A8712046FFF75CFE4FF4EC
:10268000B0712046FFF757FE4FF4A4712046FFF7C4
:1026900052FEC4F82080C4F8088000BF4FF4A8712F
:1026A000204600E028E0FFF741FE0028F6D04FF476
:1026B000A8712046FFF73FFEE878A968C4F84415E2
:1026C000C4F848053E4815E0A8786968C4F8441580
:1026D000C4F84805A868FFF7EBF968B1E878A9687D
:1026E000C4F83415C4F838054FF48450C4F8000217
:1026F00040F20220B0609CE710205FE7A87869688C
:10270000C4F84415C4F84805B8060FD54FF48070D6
:10271000C4F800022A48B0604FF4A4794946204624
:1027200001E00CE01BE0FFF706FE05E04FF400704F
:10273000C4F80002801CB060C4F8208079E7A87853
:102740006968C4F83415C4F838054FF48050C4F8EB
:10275000000240F20220B0604FF0000BECE745466B
:102760004FF482774FF492780BE041462046FFF712
:10277000DDFD30B141462046FFF7DDFD2562656194
:10278000B94649462046FFF7D1FD0028EDD0D4F8E0
:10279000C404C4F8C404002186F8241068B10321DD
:1027A000C20701D04FF40241820701D548F201214E
:1027B000400701D548F202218A465046FEE6000055
:1027C0000002040070B50C4605464FF48E71FFF709
:1027D000BDFDA18AA068415CA08A401CA082C5F80A
:1027E0001C1570BD1FB500228DF800208DF8081053
:1027F000816801918275D0E90012684690471FBD3B
:102800000078012801D10149887070470400002038
:102810002DE9FF470C4605464FF40071FFF79CFD7C
:1028200001274FF40178002618B34FF492794946F6
:102830002846FFF786FDE0B149462846FFF786FDAA
:10284000C5F80883A07E00B96F6002208DF80000F3
:10285000D5F88004C5F880040390E07D8DF8080069
:10286000E0680190E6752676D4E900126846904744
:1028700027E004212846FFF76FFD10B34FF4847161
:102880002846FFF75EFDE0B121462846FFF7B2FD7E
:10289000E07D617E884214D1207E38B1617EE2689D
:1028A000E0752069E0602676667607E0A07E00B9D4
:1028B0006F60C5F80883E675617EE2682046FFF721
:1028C000B2FD4FF48E7841462846FFF73AFD88B1B5
:1028D000A08AA17D884204D221462846FFF772FFD4
:1028E00008E041462846FFF731FDA17D11B12046A1
:1028F000FFF778FF4FF4A27841462846FFF721FD05
:10290000002812D041462846FFF720FDA07E00B1E6
:102910002F60E07D002808D0E675617EE26804B093
:102920002046BDE8F047FFF77EBDBDE8FF872DE9F3
:10293000FF410C464FF4927705463946FFF712FDEA
:102940000026C0B139462846FFF711FD02208DF858
:102950000000D5F88004C5F880040390D5F83C0544
:102960008DF80800E0680190E6752676D4E900123B
:102970006846904724E04FF4887739462846FFF7A9
:10298000F1FCE8B139462846FFF7F1FCD5F83C05E3
:10299000C1B2E07D884213D1207E60B1E268D5F8F3
:1029A000000220F02000C5F80002207EE0752069BA
:1029B000E060267601E0E675E2682046FFF733FD29
:1029C0004FF4A27739462846FFF7CCFC68B1394668
:1029D0002846FFF7CCFCE07D38B1E675D5F83C051C
:1029E000E268C1B22046FFF71EFD4FF490763146F3
:1029F0002846FFF7B7FC00280FD031462846FFF7DE
:102A0000B6FCA07D002808D0D5F84C0504B0C1B2B2
:102A10002046BDE8F041FFF7E5BEBDE8FF810000BC
:102A200000300040000100001A0000000200000019
:102A300000009801020000000100000000000000FA
:102A400000000000FFFFFFFFFFFFFFFFFFFFFFFF92
:102A5000FFFFFFFF00000000000000000000D601A3
:102A60000701000029000000010000000100000033
:102A70000100000001000000010000000100000052
:102A80000100000002000000004040404040404083
:102A90004040414141414140404040404040404031
:102AA00040404040404040404005020202020202D5
:102AB0000202020202020202022020202020202024
:102AC0002020200202020202020290909090909038
:102AD00010101010101010101010101010101010F6
:102AE000101010100202020202028888888888886A
:102AF0000808080808080808080808080808080856
:102B0000080808080202020240000000892A0000AA
:102B10004F766572666C6F770D0A00003C2B0000E3
:102B20000000002018000000100E0000542B0000D0
:102B30001800002060250000200E000000000000AA
:102B4000000000000020004000000000102B0000EA
:042B50000090D0031E
:0400000500000401F2
:00000001FF
