:020000040001F9
:10C00000684A00207DC3010085C3010087C3010089
:10C0100089C301008BC301008DC301000000000033
:10C020000000000000000000000000008FC30100BD
:10C0300091C301000000000093C3010095C30100FB
:10C0400097C3010097C30100D5D30100F5D00100CB
:10C0500009D1010097C30100CDC8010097C30100B9
:10C0600097C3010097C3010097C3010097C3010064
:10C0700097C3010097C3010097C3010097C3010054
:10C0800097C30100C1D0010097C3010097C301000D
:10C090001DD1010097C3010025D1010097C3010004
:10C0A00097C3010097C3010097C3010097C3010024
:10C0B00097C3010097C301000000000000000000CA
:10C0C00097C3010097C3010097C3010097C3010004
:10C0D00097C3010097C3010097C30100000000004F
:10C0E0000000000000000000000000000000000050
:10C0F0000000000000000000000000000000000040
:10C10000000000000000000000000000000000002F
:10C11000000000000000000000000000000000001F
:10C12000000000000000000000000000000000000F
:10C1300000000000000000000000000000000000FF
:10C1400000000000000000000000000000000000EF
:10C1500000000000000000000000000000000000DF
:10C1600000000000000000000000000000000000CF
:10C1700000000000000000000000000000000000BF
:10C1800000000000000000000000000000000000AF
:10C19000000000000000000000000000000000009F
:10C1A000000000000000000000000000000000008F
:10C1B000000000000000000000000000000000007F
:10C1C000000000000000000000000000000000006F
:10C1D000000000000000000000000000000000005F
:10C1E000000000000000000000000000000000004F
:10C1F000000000000000000000000000000000003F
:10C20000DFF80CD000F014F9004800477517020061
:10C21000684A0020401E00BF00BF00BF00BF00BF33
:10C2200000BF00BF00BF00BF00BF00BF00BF00BF16
:10C2300000BF00BF00BF00BF00BF00BF00BF00BF06
:10C2400000BF00BF00BF00BF00BF00BF00BF00BFF6
:10C2500000BF00BF00BF00BF00BF00BF00BF00BFE6
:10C2600000BF00BF00BF00BF00BF00BF00BF00BFD6
:10C2700000BF00BF00BF00BF00BF00BF00BF00BFC6
:10C2800000BF00BF00BFC5D170470000401E00BF07
:10C2900000BF00BF00BF00BF00BF00BF00BF00BFA6
:10C2A00000BF00BF00BF00BF00BF00BF00BF00BF96
:10C2B00000BF00BF00BF00BF00BF00BF00BF00BF86
:10C2C00000BF00BF00BF00BF00BF00BF00BF00BF76
:10C2D00000BF00BF00BF00BF00BF00BF00BF00BF66
:10C2E00000BF00BF00BF00BF00BF00BF00BF00BF56
:10C2F00000BF00BF00BF00BF00BF00BF00BFC5D16F
:10C3000070470000401E00BF00BF00BF00BF00BF5D
:10C3100000BF00BF00BF00BF00BF00BF00BF00BF25
:10C3200000BF00BF00BF00BF00BF00BF00BF00BF15
:10C3300000BF00BF00BF00BF00BF00BF00BF00BF05
:10C3400000BF00BF00BF00BF00BF00BF00BF00BFF5
:10C3500000BF00BF00BF00BF00BF00BF00BF00BFE5
:10C3600000BF00BF00BF00BF00BF00BF00BF00BFD5
:10C3700000BF00BF00BFC5D170470000064880471E
:10C3800006480047FEE7FEE7FEE7FEE7FEE7FEE7BA
:10C39000FEE7FEE7FEE7FEE76DD1010001C2010006
:10C3A00040EA01039B0703D009E008C9121F08C037
:10C3B000042AFAD203E011F8013B00F8013B521EB7
:10C3C000F9D27047D2B201E000F8012B491EFBD22E
:10C3D00070470022F6E710B513460A460446194690
:10C3E000FFF7F0FF204610BD30B50446002003469D
:10C3F00000E05B1C934203D2E05CCD5C401BF8D0B4
:10C4000030BD30B50B46014600202022012409E052
:10C4100021FA02F59D4205D303FA02F5491B04FAFD
:10C4200002F52844151EA2F10102F1DC30BD000026
:10C43000064C074D06E0E06840F0010394E8070071
:10C4400098471034AC42F6D3FFF7DEFEB448020042
:10C45000D448020070B594B005460024544B0FCB6D
:10C460000FAE0FC641F6CC20ADF84C00B11C0FA8A2
:10C4700063DF00BF264636B100BF4EA26F213046B3
:10C4800001F005FB00BF00BF1C2108A8FFF7A1FFBA
:10C490009DF8200020F00200801C8DF820009DF8FF
:10C4A000200020F0080008308DF8200000200790C0
:10C4B00000BF9DF81C0020F00F00401C8DF81C00F0
:10C4C0009DF81C0020F0F00010308DF81C0000BF1B
:10C4D00000BF9DF81D0020F00F00401C8DF81D00CE
:10C4E0009DF81D0020F0F00010308DF81D0000BFF9
:10C4F0009DF81E0020F00600801C8DF81E0007A885
:10C500000D909DF8200020F0100010308DF82000D4
:10C51000002006909DF81A0020F00600801C8DF87F
:10C520001A0000BF9DF8180020F00F00401C8DF885
:10C5300018009DF8180020F0F00010308DF8180059
:10C5400000BF00BF9DF8190020F00F00401C8DF8BF
:10C5500019009DF8190020F0F00010308DF8190036
:10C5600000BF142101A8FFF734FF13A8019006A80B
:10C5700002900420ADF81000ADF80C0013A0006884
:10C580000090CDF814D068882B1D01AA08A9A2DF5D
:10C59000044600BF264636B100BF06A29E213046A3
:10C5A00001F075FA00BF00BF002014B070BD00009C
:10C5B000704602002E2E5C2E2E5C2E2E5C6F757245
:10C5C0005F736572766963652E6300001234567876
:10C5D00070B594B005460024544B0FCB0FAE0FC678
:10C5E00042F6CC20ADF84C00B11C0FA863DF00BFB1
:10C5F000264636B100BF4EA2B021304601F047FAC0
:10C6000000BF00BF1C2108A8FFF7E3FE9DF8200033
:10C6100020F00200801C8DF820009DF8200020F002
:10C62000080008308DF820000020079000BF9DF81A
:10C630001C0020F00F00401C8DF81C009DF81C0011
:10C6400020F0F00010308DF81C0000BF00BF9DF8F6
:10C650001D0020F00F00401C8DF81D009DF81D00EE
:10C6600020F0F00010308DF81D0000BF9DF81E0076
:10C6700020F00600801C8DF81E0007A80D909DF884
:10C68000200020F0100010308DF8200000200690CF
:10C690009DF81A0020F00600801C8DF81A0000BFDB
:10C6A0009DF8180020F00F00401C8DF818009DF830
:10C6B000180020F0F00010308DF8180000BF00BF07
:10C6C0009DF8190020F00F00401C8DF819009DF80E
:10C6D000190020F0F00010308DF8190000BF14216F
:10C6E00001A8FFF776FE13A8019006A80290042087
:10C6F000ADF81000ADF80C0013A000680090CDF864
:10C7000014D0688805F10C0301AA08A9A2DF044629
:10C7100000BF264636B100BF05A2DF21304601F03A
:10C72000B6F900BF00BF002014B070BD8046020003
:10C730002E2E5C2E2E5C2E2E5C6F75725F736572D2
:10C74000766963652E6300001234567870B594B034
:10C7500005460024554B0FCB0FAE0FC643F6CC2039
:10C76000ADF84C00B11C0FA863DF00BF264636B100
:10C7700000BF4FA2F121304601F089F900BF00BF90
:10C780001C2108A8FFF725FE9DF8200020F00200DC
:10C79000801C8DF820009DF8200020F00800083053
:10C7A0008DF820000020079000BF9DF81C0020F0AD
:10C7B0000F00401C8DF81C009DF81C0020F0F000BC
:10C7C00010308DF81C0000BF00BF9DF81D0020F048
:10C7D0000F00401C8DF81D009DF81D0020F0F0009A
:10C7E00010308DF81D0000BF9DF81E0020F00600DF
:10C7F000801C8DF81E0007A80D909DF8200020F0E9
:10C80000100010308DF82000002006909DF81A00CE
:10C8100020F00600801C8DF81A0000BF9DF818005B
:10C8200020F00F00401C8DF818009DF8180020F033
:10C83000F00010308DF8180000BF00BF9DF81900FF
:10C8400020F00F00401C8DF819009DF8190020F011
:10C85000F00010308DF8190000BF142101A8FFF777
:10C86000B8FD13A8019006A802900420ADF81000AE
:10C87000ADF80C0014A000680090CDF814D06888C2
:10C8800005F1140301AA08A9A2DF044600BF264649
:10C890003EB100BF06A24FF49071304601F0F7F8A8
:10C8A00000BF00BF002014B070BD00009046020021
:10C8B0002E2E5C2E2E5C2E2E5C6F75725F73657251
:10C8C000766963652E630000123456782DE9F04FC7
:10C8D00087B00027BA464FF48070069001250024E7
:10C8E00012E0069805F034FD40B100BF60480068D2
:10C8F000284018B1069805F01DFD2F436D000698DD
:10C90000001D80B20690641C082CEAD34FF4BE7060
:10C9100005F01EFD48B14FF4BE7005F00BFD47F069
:10C92000004700BF534800688246F8B2F8B10125BD
:10C9300000241AE005EA0700A8B100BF4E4850F8ED
:10C940002400C0F30420064600BF4B4850F82400E2
:10C95000C0F301408046204602F0E2FC8146414699
:10C960003046C84700BF6D00641C082CE2D307F0B6
:10C970000040002879D04FF0000B00200590401EA9
:10C98000049000BF4FF0000B002457E03B48005DCF
:10C990000390039820F0C00638480057401C002838
:10C9A0004BD00120B04004990840002845D003989E
:10C9B0004FEA9019304602F0FBFC804602F0B0FCD2
:10C9C0000290029810B9B9F1030F35D1012000FA95
:10C9D00006F5B9F1030F02D105982843059000BF71
:10C9E000274850F82600C0F3014800BF05EA0A00B6
:10C9F00010B1B8F1020F05D005EA0A00D8B9B8F1B4
:10CA0000030F18D1B9F1030F0FD1B8F1020F01D103
:10CA1000032000E0022001903046019905F05AFC05
:10CA20000BF1010000F0FF0B00BF029818B149465E
:10CA30003046029A904700BF00BF641C042CA5D367
:10CA4000BBF1000F0DD000BF0A49096808465045E8
:10CA500003D14FF0000B03E007E0824605990491F3
:10CA600000BFBBF1000F8DD100BF07B0BDE8F08F54
:10CA70000463004010050050106500404828002065
:10CA80000007005070B594B005460024554B0FCBFD
:10CA90000FAE0FC64EF61060ADF84C00B11C0FA8DB
:10CAA00063DF00BF26463EB100BF4FA240F2311106
:10CAB000304600F0ECFF00BF00BF1C2108A8FFF7C4
:10CAC00088FC9DF8200020F00200801C8DF82000DA
:10CAD0009DF8200020F0080008308DF8200000208C
:10CAE000079000BF9DF81C0020F00F00401C8DF83F
:10CAF0001C009DF81C0020F0F00010308DF81C0088
:10CB000000BF00BF9DF81D0020F00F00401C8DF8F5
:10CB10001D009DF81D0020F0F00010308DF81D0064
:10CB200000BF9DF81E0020F00600801C8DF81E003E
:10CB300007A80D909DF8200020F0100010308DF80F
:10CB40002000002006909DF81A0020F00600801CAE
:10CB50008DF81A0000BF9DF8180020F00F00401C4F
:10CB60008DF818009DF8180020F0F00010308DF8B6
:10CB7000180000BF00BF9DF8190020F00F00401CF6
:10CB80008DF819009DF8190020F0F00010308DF894
:10CB9000190000BF142101A8FFF71BFC13A8019086
:10CBA00006A802900420ADF81000ADF80C0014A007
:10CBB00000680090CDF814D0688805F11C0301AA24
:10CBC00008A9A2DF044600BF26463EB100BF06A268
:10CBD0004FF4B071304600F05AFF00BF00BF002094
:10CBE00014B070BDA04602002E2E5C2E2E5C2E2EA0
:10CBF0005C6F75725F736572766963652E630000A2
:10CC000012345678F8B504460D4629461D2000F02A
:10CC10009BF88DF8000021461D2000F095F88DF856
:10CC2000010000279DF800009DF801104FF480726C
:10CC300012FB010007B23E463046F8BD10B5282170
:10CC40002920FFF7DFFF10BD10B52A212B20FFF7A9
:10CC5000D9FF10BD10B52C212D20FFF7D3FF10BD3B
:10CC60002DE9FC41192001210A4600231D461E46DC
:10CC700041EA420747EA830747EA052747EA064CA5
:10CC8000284F47F820C000BF00BF1921012202FA37
:10CC900001F0254B1A6820EA0203234D2D1D2B605D
:10CCA00002EA00032D1D2B6000BF00BF1FA000681B
:10CCB00001900020022301AA1D2100901C4805F0CC
:10CCC00055F8044600BF254635B100BF19A26821BA
:10CCD000284600F0DCFE00BF00BF4FF4FA7004F0FD
:10CCE00082FE20208DF8040047208DF805000020EA
:10CCF000022301AA1D2100900D4805F037F80446D3
:10CD000000BF254635B100BF0AA26E21284600F0BB
:10CD1000BEFE00BF00BF4FF4FA7004F064FEBDE831
:10CD2000FC81000000070050040500502490000022
:10CD3000E84602002E2E5C2E2E5C2E2E5C414343D4
:10CD40005F66696C652E6300F8B504460D4628469B
:10CD500000F022F801236A462146094804F0F0FF5A
:10CD6000064600BF374637B100BF06A22721384626
:10CD700000F08DFE00BF00BF9DF80000F8BD000070
:10CD8000E84602002E2E5C2E2E5C2E2E5C41434384
:10CD90005F66696C652E63007CB5044601940020D3
:10CDA000012301AA1D210090074804F0DFFF05467A
:10CDB00000BF2E4636B100BF04A21F21304600F04E
:10CDC00066FE00BF00BF7CBDE84602002E2E5C2E32
:10CDD0002E5C2E2E5C4143435F66696C652E6300BA
:10CDE0007FB50D4B0FCB8DE80F0000231A46694627
:10CDF0000A4804F057FF044600BF254635B100BF7E
:10CE000007A23421284600F042FE00BF00BF0348BD
:10CE100004F036FF7FBD0000F0460200E846020045
:10CE20002E2E5C2E2E5C2E2E5C4143435F66696C79
:10CE3000652E6300F8B504460D46284600F0BAF8A2
:10CE400001236A462146094804F07AFF064600BFDE
:10CE5000374637B100BF06A24021384600F017FE22
:10CE600000BF00BF9DF80000F8BD0000D0460200E2
:10CE70002E2E5C2E2E5C2E2E5C4852535F66696C03
:10CE8000652E63002DE9F041E6B00026042157200D
:10CE9000FFF7D0FF074606215720FFF7CBFF80465C
:10CEA000A7EB0804002C00DA2034002526E0072038
:10CEB00000F080F8062363AA5721154804F040FFCC
:10CEC00000208DF897019DF88F018DF896019DF84F
:10CED00090018DF895019DF891018DF894019DF8D0
:10CEE000960100049DF895114FF4807212FB010029
:10CEF0009DF8941146184DF825606D1CA542D6DBAF
:10CF0000601E5DF82060304666B0BDE8F08100002C
:10CF1000D04602002DE9FC4104460D468DF8044040
:10CF20008DF805500020022301AA572100900848DF
:10CF300004F01CFF064600BF374637B100BF05A20C
:10CF40001D21384600F0A3FD00BF00BFBDE8FC81F5
:10CF5000D04602002E2E5C2E2E5C2E2E5C485253A4
:10CF60005F66696C652E630010B570210820FFF7BD
:10CF7000D1FF07210920FFF7CDFF27210A20FFF766
:10CF8000C9FF1F210C20FFF7C5FF1F210D20FFF750
:10CF9000C1FF1F210E20FFF7BDFF1F211020FFF74B
:10CFA000B9FF12211120FFF7B5FF00211220FFF772
:10CFB000B1FF10BD7CB5044601940020012301AAF5
:10CFC00057210090074804F0D1FE054600BF2E46C9
:10CFD00036B100BF04A23821304600F058FD00BF32
:10CFE00000BF7CBDD04602002E2E5C2E2E5C2E2E65
:10CFF0005C4852535F66696C652E63007FB50D4BCC
:10D000000FCB8DE80F0000231A4669460A4804F04A
:10D0100049FE044600BF254635B100BF07A24E2198
:10D02000284600F034FD00BF00BF034804F028FE8E
:10D030007FBD0000D8460200D04602002E2E5C2E96
:10D040002E5C2E2E5C4852535F66696C652E630021
:10D0500000F01F0201219140024A430942F82310C7
:10D060007047000080E200E000F01F0201219140C3
:10D070004209920002F1E022C2F80011704700005C
:10D0800000F01F0201219140024A430942F8231097
:10D090007047000000E200E010B5002807DA4A07F8
:10D0A000140E054A00F00F031B1FD45403E04A0777
:10D0B000130E024A135410BD18ED00E000E400E026
:10D0C00010B500200949086000210948C0F8441142
:10D0D000C0F84811C0F84C1100200549C1F8000102
:10D0E00002493C39086006F061FC10BD4011014066
:10D0F0000010014010B50249024804F047F910BD84
:10D10000542900200030004010B503494FF0402062
:10D1100004F03CF910BD00007C29002010B506F099
:10D1200003FB10BD70B50B48006880B1094800686A
:10D130008047044600BF25463DB100BF064A4FF474
:10D14000B371284600F0A3FC00BF00BF01E004F06B
:10D15000C5F870BD682100205C4802000148024902
:10D16000086070470090D0038021002010B503F0C4
:10D1700045FC28B188480088C0F30420874908602E
:10D1800003F066FC10B186488649486703F078FCD6
:10D1900030B18148E0380068C0F34230824908600D
:10D1A00003F098FC28B18148006820F080707F4926
:10D1B000086003F0A7FC48B100207D4908604FF0EB
:10D1C0008041C1F810017849091F086003F0C4FCD0
:10D1D00018B1032074496431086003F0D5FC68B1CC
:10D1E00005207449086001207249783108600020E8
:10D1F0007049083108603F20091F086003F0DCFC1B
:10D20000002855D06448E03000686B4908606248E7
:10D21000E4300068091D08605F48E8300068091DB7
:10D2200008605D48EC300068091D08605A48F0301D
:10D230000068091D08605848F4300068091D08603E
:10D240005548F83000685C49203108605248FC308D
:10D250000068091D086059480068091D08605748A2
:10D26000001D0068091D0860544808300068091D49
:10D27000086052480C300068091D08604F481030A3
:10D2800000684D49403108604C4814300068091D61
:10D2900008604A4818300068091D086047481C307B
:10D2A0000068091D0860454820300068091D0860B5
:10D2B00003F07AFB30B13848CC38006800F04F00FA
:10D2C0003F49086039487438006840F470003749B5
:10D2D0007439086000BF00BF00BFBFF34F8F00BFAD
:10D2E00000BF00BF00BF00BF00BFBFF36F8F00BF14
:10D2F00000BF00BF3348006800F0004028B9314843
:10D30000001D006800F00040F0B301202E490860C5
:10D3100000BF2E4800680028FBD01520294908606E
:10D3200000BF2A4800680028FBD015212548001DB1
:10D33000016000BF254800680028FBD0002022497A
:10D34000086000BF214800680028FBD000BF00BF74
:10D3500000BF00BF00BFBFF34F8F00BF00BF00BFC3
:10D360001248F038006800F4E06019490843001DD5
:10D370000E49F039086000BF00BF00BFBFF34F8FF8
:10D3800000BF00BF00BF00E002E000BF00BFFDE73C
:10D39000FFF7E4FE10BD00002403001040350140FB
:10D3A0000DF0ADBA00C007403C050040FCED00E0C8
:10D3B0000C0100401056004020C50040240400101D
:10D3C000E40E00400012001004E5014000E40140BA
:10D3D0000000FA0510B50448007F10B106F068FFA0
:10D3E00001E006F0B5FE10BD502800200FB4054B3B
:10D3F00010B503A9044A029800F018F810BC5DF8B3
:10D4000014FB0000C90D02006021002002E008C8E2
:10D41000121F08C1002AFAD170477047002001E0AE
:10D4200001C1121F002AFBD1704700002DE9FF4FF8
:10D4300089B09B460446002506E025280BD05A46B5
:10D440000B999047641C6D1C20780028F5D10DB015
:10D450002846BDE8F08F0027B8460122474900E082
:10D46000074314F8013F203B02FA03F00842F7D1CA
:10D4700020782E2819D114F8010F47F004072A2824
:10D480000ED06FF02F022078A0F1300109290CD8BE
:10D4900008EB880102EB410100EB0108641CF2E794
:10D4A0000A98641C50F8048B0A9020780028CED08B
:10D4B000642808D0692806D075281ED05A460B99D2
:10D4C00090476D1C58E00A994FF00A0901C90A916A
:10D4D000002802DA40422D2102E0390504D52B2133
:10D4E0008DF82010012103E0F90704D02021F7E78F
:10D4F0008A4608AE0DE00021FAE70A994FF00A09C2
:10D5000001C90A91F7E74946FEF77BFF303106F87B
:10D51000011D0028F7D1ADEB060000F120097807C6
:10D5200001D44FF00108C84502DDA8EB090000E076
:10D5300000208046002706E008A85A46C05D0B99E7
:10D5400090476D1C7F1C5745F6DB04E030205A469F
:10D550000B9990476D1CB8F10001A8F10108F5DCAA
:10D5600005E016F8010B5A460B9990476D1CB9F16E
:10D570000001A9F10109F4DC641C65E70928010038
:10D5800030B585B004460D4620884FF6FF718842BD
:10D5900016D0042004900020009001900290039087
:10D5A000A088ADF8000001208DF802000020ADF841
:10D5B000040004A80290039520886946A6DF00BFF6
:10D5C00005B030BD30B585B004460D4620884FF615
:10D5D000FF71884216D00420049000200090019032
:10D5E00002900390A089ADF8000001208DF80200A0
:10D5F0000020ADF8040004A8029003952088694635
:10D60000A6DF00BF05B030BD30B585B004460D467D
:10D6100020884FF6FF71884216D004200490002025
:10D620000090019002900390A08AADF800000120C4
:10D630008DF802000020ADF8040004A802900395C4
:10D6400020886946A6DF00BF05B030BD70B586B042
:10D6500005461B4B0FCB01AC0FC44AF6C040ADF8DA
:10D660001400A11C01A863DF044600BF26463EB19A
:10D6700000BF14A24FF4B971304600F008FA00BFA1
:10D6800000BF4FF6FF702880AA1C05A90120A0DF6B
:10D69000044600BF26463EB100BF0AA24FF4BE7149
:10D6A000304600F0F4F900BF00BF2846FEF7D2FE76
:10D6B0002846FEF78DFF2846FFF748F806B070BDF4
:10D6C000B04602002E2E5C2E2E5C2E2E5C6F7572E4
:10D6D0005F736572766963652E6300002DE9FC4116
:10D6E0000446884616460025378800203080606B47
:10D6F00068B1616B08783B463246414605F09CFCB8
:10D70000054600BF15B12846BDE8FC8100BF206B6F
:10D7100058B13B4632464146206B06F0C3F90546F8
:10D7200000BF0DB12846EFE700BF94F82E0060B1AE
:10D7300094F82E003B463246414603F003FF05466F
:10D7400000BF0DB12846DFE700BF94F82D0050B1AF
:10D750003A463146404600F0B0FF054600BF0DB1E5
:10D760002846D1E700BFA07850B13A46314640463E
:10D7700000F092FB054600BF0DB12846C4E700BF8C
:10D78000E07860B1E17848B23B463246414603F06A
:10D790007FFA054600BF0DB12846B5E700BF6068B7
:10D7A00068B1616891F900003B463246414606F097
:10D7B000F9FB054600BF0DB12846A5E700BF20894B
:10D7C00000280EDD43460622022104F10800CDE9BF
:10D7D000006706F0A5FE054600BF0DB1284693E799
:10D7E00000BF208A00280EDD43460722032104F1F2
:10D7F0001000CDE9006706F093FE054600BF0DB1AD
:10D80000284681E700BF208B00280EDD4346152205
:10D81000142104F11800CDE9006706F081FE0546E9
:10D8200000BF0DB128466FE700BF206A58B13B46E4
:10D8300032464146206A01F0AAFF054600BF0DB1FD
:10D84000284661E700BF606A58B13B463246414610
:10D85000606A04F023F8054600BF0DB1284653E77F
:10D8600000BF94F82C0000280BDD3B4632464146B1
:10D87000204605F0FCFB054600BF0DB1284643E7F6
:10D8800000BF207858B13B4632464146204604F05E
:10D8900040F8054600BF0DB1284635E700BF2846D1
:10D8A00032E70146C87800F0040008B90720704745
:10D8B0000020FCE710B501220221002001F042F90E
:10D8C000044600BF1CB1072C01D0204610BD00BF8C
:10D8D00007220221012001F035F9044600BF1CB1E6
:10D8E000072C01D02046F1E700BF0A22002108469C
:10D8F00001F028F9044600BF1CB1072C01D02046D6
:10D90000E4E700BF0020E1E730B599B038210BA86B
:10D91000FEF75FFD02208DF82C0006208DF82F0009
:10D92000242102A8FEF755FD01208DF814004FF4C4
:10D9300096700690B420079000200B4B02AA014677
:10D9400000900BA800F07AFB044600BF25463DB1CD
:10D9500000BF06A240F20321284600F098F800BF5D
:10D9600000BF19B030BD0000512402002E2E5C2EE5
:10D970002E5C2E2E5C6D61696E2E6300014600BF29
:10D98000064A10684FF400228243044B1B1D1A60A4
:10D9900000F400221B1D1A6000BF704704050050F0
:10D9A00010B5002407E00749096811F83400012187
:10D9B00004F05CF8641C044800788442F3D300202F
:10D9C00010BD0000282100202C2100202DE9F84363
:10D9D00006460C461746052F02D20720BDE8F883FD
:10D9E00004F044F938B904F017F9054600BF0DB149
:10D9F0002846F3E700BF164806601648047016482C
:10DA000007600020154908601549086015E006EB1D
:10DA1000C40814480068009098F802008DF80100CE
:10DA200098F80000104A694604F07CF8054600BFEB
:10DA30000DB12846D2E700BF00BF201EA4F10101AE
:10DA4000CCB2E4D1094A0021094800F0E3F8C5E767
:10DA5000282100202C21002030210020342100200A
:10DA6000382100200C4802002D1102009DFA01000F
:10DA70000848020070B504460D4616460C2001F019
:10DA80008FF832462946204600F012F870BDFEB5E8
:10DA900004460E461546B0B2ADF80000019502945A
:10DAA0006A46002144F20100FFF7E4FFFEBD0000DA
:10DAB00018B5012300939DF800301E4B1860596083
:10DAC0009A606FF48043034463B1012B19D1194B61
:10DAD000DA60DB681B88174CA3612346DB685B6850
:10DAE000E3610EE0134B1A611B699B68114C636183
:10DAF00023461B691B88A36123461B695B68E3619E
:10DB000000BF00BF0B4B1B680A4B5B68094B9B684F
:10DB1000084BDB68074B1B69064B5B69054B9B6930
:10DB2000044BDB6972B600BF9DF80030002BFBD1BF
:10DB300062B618BDE42900202DE9F04104460D46E7
:10DB4000164604480768324629462046B847BDE8CD
:10DB5000F0810000D427002070B504460D46204611
:10DB600003F07FF828B12946204603F069F8002029
:10DB700070BD0520FCE7034609B90E20704712B1BD
:10DB8000501E104008B10920F8E71960501E988017
:10DB900000209860D86000BFF0E770B504460D46DD
:10DBA000204603F05EF8A188884205D82946204621
:10DBB00003F065F8002070BD0420FCE7F8B50546C9
:10DBC0000C462778A06800EB4000064951F8206019
:10DBD0000548006800902A46394604F10800236988
:10DBE000B047F8BD3C2900201821002010B504469C
:10DBF0000748007800EB80020548001D00EB820119
:10DC00002046FFF7DBFF042005F0C0FA10BD00003E
:10DC10007028002010B503460C4600BF0B48006872
:10DC200008B9082010BD00BF0AB90720FAE70BB9F0
:10DC30000720F7E71868007C08B10820F2E71968A8
:10DC4000002008744C744A6100BFEBE740210020BB
:10DC50002DE9F04180460E4614461F46204600F04E
:10DC6000030109B9012100E0002111B90720BDE835
:10DC7000F08124B900201D4908600720F7E705F06E
:10DC8000EDF81B48076003201A4908701748046024
:10DC9000183400250DE01549096801EBC500002185
:10DCA000017041708670446006EB460104EBC104CC
:10DCB0006D1C032DEFDB00200F4908600F49087031
:10DCC0000F4908701420FFF7C3F906211420FFF74D
:10DCD000E3F91420FFF7C8F9404605F095F805F080
:10DCE0008DF8084908600020C1E7000040210020AD
:10DCF000582100203C2100204421002054210020F4
:10DD000055210020482100202DE9F84304460D4606
:10DD10001746264600BF1148006810B90820BDE824
:10DD2000F88300BF0CB90820F9E7052D01D20720C0
:10DD3000F5E7706908B90820F1E7707C012801D186
:10DD4000284600E00020804606F0A4FB81464346BA
:10DD50002A463146009705F081FDE0E7402100208A
:10DD600070B50446254600BF0948006808B9082078
:10DD700070BD00BF0CB1686908B90820F8E7002041
:10DD8000287406F087FB0646294605F095FDEFE767
:10DD9000402100202DE9F04188B004460D46174689
:10DDA0009846294807601DB9072008B0BDE8F081F2
:10DDB000A88882B225482968FFF7DDFE064600BF25
:10DDC0000EB13046F1E700BFA88982B22048A968A9
:10DDD000FFF7D1FE064600BF0EB13046E5E700BFB3
:10DDE00020221C496846FEF7DBFAA06806902079DD
:10DDF00008B1012000E000208DF814008DF81C808F
:10DE0000607908B10E2000E000208DF81500E07860
:10DE10000290A078039020780190607800900E49DD
:10DE2000684603F0DFFF064600BF0EB13046BCE790
:10DE300000BF9DF81D0008B904F09EF801210748B5
:10DE400004F042F8B1E7000020210020A4290020BE
:10DE5000B4290020E84702004940020025210020A3
:10DE600070B5044621460A48FFF797FE054665B996
:10DE700004F0E8F948B907490548FFF76DFE20B9F5
:10DE80000121044804F03CF90546284670BD000015
:10DE9000B429002024210020F8B505460C46174679
:10DEA0002088001DB84201D90C20F8BD684679DFF2
:10DEB000064600BF0EB13046F7E700BF03202188B9
:10DEC00068542088401C20801920218868542088AC
:10DED000401C208020884119BDF8000006F07EFA21
:10DEE0002188084420800020DFE7704710B50446F1
:10DEF000206804F009FA206804F0DFF90021606866
:10DF000004F0CEF92548007F18B3A06924490860C1
:10DF100000BF607D217D40EA0102224BC3F86C25E1
:10DF200000BF1846D4E9001204F08AFA207D0128C7
:10DF300032D10021A06804F0B3F9E06804F0E4F9FC
:10DF4000E06804F0BAF91748D4E9022104F064FA51
:10DF500022E0A0691249086000BF607D217D40EA8F
:10DF60000102104BC3F86C2500BF1846D4E900121B
:10DF700004F03DFA207D01280ED10021A06804F0B4
:10DF80008FF9E06804F0C0F9E06804F096F90548FC
:10DF9000D4E9022104F014FA10BD0000502800203A
:10DFA00024250040002000402DE9F04192B0804639
:10DFB0000D461F2011901090B8F1000F17D0404669
:10DFC000FFF76FFC044600BF1CB1204612B0BDE84D
:10DFD000F08100BF11AA08A94046FFF77FFB044665
:10DFE00000BF0CB12046F1E700BF08AE02E00026FA
:10DFF00000201190ADB1284605F04AF9044600BF53
:10E000000CB12046E2E700BF10AA69462846FFF798
:10E0100065FB044600BF0CB12046D7E700BF6F4642
:10E0200002E0002700201090BDF84000C3B2BDF808
:10E030004400C1B23A46304672DFC7E72DE9F047E7
:10E0400004460F4615461E46DDF8208000BF14B971
:10E050000E20BDE8F08700BF00BF0DB90E20F8E725
:10E0600000BF002046490870464806604648C0F890
:10E070000080242229464548FEF792F900F03EF937
:10E080004348444908604448886038214348FEF7C3
:10E09000A0F9207841490870A0788870E078C870AD
:10E0A000607848700846D4E90412C0E90412D4E943
:10E0B0000212C0E90212D4E90612C0E90612606A2F
:10E0C000D8B137483549486236498160606A00886E
:10E0D0003249496A0880606A80883049496A888084
:10E0E000002005E0616A8968095C2E4A1154401CD1
:10E0F0002A49496A89888142F4D8A06A20B32A490A
:10E100002A4881602549886227492448806A8160BD
:10E11000A06A80882149896A8880A06A00881F498E
:10E12000896A0880002005E0A16A8968095C1E4AA6
:10E130001154401C1949896A89888142F4D894F89D
:10E140002C00164981F82C00206A58B11848134950
:10E150000862206A4088096A4880206A00880F495E
:10E16000096A0880606820B112480C4948606068FC
:10E17000486039460948FFF717FF8146484668E777
:10E18000C0200020B8200020BC200020A0250020B6
:10E19000D4250020C4250020F42500206825002077
:10E1A00014260020202600204C2600204026002097
:10E1B000C4200020C820002070B504462088102804
:10E1C00004D0112809D01B2863D11BE0A07D0128B1
:10E1D00002D1A088304908805CE000202F490870F7
:10E1E000A0882D49098888420BD1012000F0CAF887
:10E1F000054635B12A48006818B1284628490968FB
:10E20000884747E0207A002842D126480078012834
:10E2100006D0022811D003281CD0042836D129E0CA
:10E22000022000F0AFF8054635B11D48006818B16E
:10E2300028461B490968884729E0032000F0A2F816
:10E24000054635B11648006818B1284614490968D2
:10E2500088471CE0032014490870042000F092F85D
:10E26000054635B10E48006818B128460C490968C2
:10E2700088470CE000200C4908700C48006820B169
:10E280000846007809490968884700E000BF00BFD8
:10E2900000E000BF00BF70BDCA200020C1200020E8
:10E2A000BC200020C0200020B4200020B820002086
:10E2B00070B504460025022C02D0032C15D100E0D5
:10E2C00000BF0B48007878B1002009490870094860
:10E2D000007800F057F8054635B10748006818B1D6
:10E2E000284605490968884700E000BF00BF70BDA7
:10E2F000AC200020C0200020BC20002002480021CB
:10E300000160818081717047AD20002010B51848F0
:10E310000078012829D11748007830BB16480078CA
:10E3200030B174DF044600BF0CB1204610BD00BF01
:10E3300001201049087006201049C87000210F48BC
:10E34000FFF732FE044600BF0CB12046EEE700BFE7
:10E350000948007800F016F8044634B1084800680F
:10E3600018B120460649096888470020DEE700000A
:10E37000A0250020C1200020C0200020682500200A
:10E38000BC20002030B587B005469548057002F0E6
:10E390009AFC28B1012093490870002007B030BDD5
:10E3A000FFF7ACFF9048407818B18D4800780128FD
:10E3B0000DD08D48807818B189480078012806D0A2
:10E3C0008948807888B18648007802280DD187482E
:10E3D000006838B10120864908700820834909681F
:10E3E000884702E00020824908707D4800780128B3
:10E3F00009D17D48407818B17E4804F01DF910B964
:10E4000002207749087076480078022809D17648BA
:10E41000807818B1774804F00FF910B903207049DB
:10E4200008707148007B30B96D480078032802D12C
:10E4300004206B4908706C48007E40B96848007839
:10E44000042804D10020664908706B4908706748A9
:10E450000068A8B162480078032803D060480078BB
:10E4600004280DD16048007850B16448007838B96C
:10E4700001206349087007205C490968884702E069
:10E4800000205F490870182101A8FDF7A2FF0020B5
:10E490008DF8040002908DF80C000490504800782C
:10E4A000012806D0022813D0032825D0042876D1CD
:10E4B00050E05048401E029001208DF804000020DA
:10E4C000ADF81600ADF8140001204B49087071E05A
:10E4D0004848401E029001208DF8040042480089FF
:10E4E00080B2ADF816004048808880B2ADF81400C4
:10E4F0000220414908705DE03B48808A80B2ADF857
:10E5000016003948008A80B2ADF814003D4806F084
:10E510009CF8D8B134480078C0B138480078A8B920
:10E5200002208DF80C003748049004203649C8704A
:10E5300000213548FFF738FD044600BF0CB12046E6
:10E540002CE700BF05202C49087002E003202A496F
:10E5500008702FE02448808B80B2ADF81400224868
:10E56000008C80B2ADF81600264806F06EF8E0B1D7
:10E570001D480078C8B121480078B0B902208DF854
:10E580000C002048049004201F49C87000211E4838
:10E59000FFF70AFD044600BF14B12046FEE608E07E
:10E5A00000BF06201449087002E0042012490870D8
:10E5B00000E000BF00BF0A48007838B101A873DF4F
:10E5C000044600BF0CB12046E8E600BF07480068DB
:10E5D00020B1094800780549096888470020DDE630
:10E5E000C0200020AC200020A0250020B820002062
:10E5F000C3200020AE200020B4200020C120002035
:10E60000C2200020C42500206825002070B50546E2
:10E610001C2229461248FDF7C3FE0020114908704C
:10E62000286850B1104829680A680260496841604A
:10E630007ADF04463CB1204670BD0B487BDF0446C0
:10E640000CB12046F8E74FF6FF700849088000201B
:10E6500007490870074A00210748FFF7DBFAEBE794
:10E660006C260020E0200020CC200020D6200020B6
:10E67000D4200020054402003C47020010B50446A7
:10E680002088102806D0112808D012280ED0502833
:10E6900010D107E0204603F067FF0CE0204603F0AE
:10E6A0007FFF08E0204603F09BFF04E0204603F0D4
:10E6B0004FFF00E000BF00BF10BD2DE9FC41054643
:10E6C0000C46174620880930B84202D90C20BDE814
:10E6D000FC81684671DF064600BF0EB13046F6E7A2
:10E6E00000BF0820218868542088401C20801B20FF
:10E6F000218868542088401C208020882844DDF828
:10E7000001100160BDF8051081802088801D2080E7
:10E710009DF8000018B900202188685402E001200B
:10E72000218868542088401C20800020CFE700000A
:10E7300010B50446204601F073FB2046FFF79EFF0C
:10E74000204600F0EDF8204603F0A6FE2046FFF735
:10E7500033FD2146034800F009F82146024800F045
:10E7600005F810BD84210020A82100200A88102A65
:10E7700002D0112A07D102E08A88028004E04FF615
:10E78000FF72028000E000BF00BF704770B586B026
:10E7900038480068059000BF00234822364905A884
:10E7A00004F038FD054600BF2E463EB100BF33A23F
:10E7B0004FF4BD713046FFF76AF900BF00BF00BFDC
:10E7C0006A460121002004F005FD044600BF2546ED
:10E7D0003DB100BF29A24FF4C0712846FFF757F999
:10E7E00000BF00BF00BF294E304604F0AFFB044617
:10E7F00000BF25463DB100BF20A240F2831128464C
:10E80000FFF745F900BF00BF00BF01208DF80C00E5
:10E81000684604F0D1FC044600BF25463DB100BF68
:10E8200016A24FF4C4712846FFF731F900BF00BFAC
:10E83000174804F0B5FC044600BF25463DB100BFB3
:10E840000EA24FF4C6712846FFF721F900BF00BFA2
:10E85000104804F011FD044600BF25463DB100BF3D
:10E8600006A24FF4C8712846FFF711F900BF00BF98
:10E8700006B070BD60460200B42300202E2E5C2E30
:10E880002E5C2E2E5C6D61696E2E6300E81F0020E9
:10E8900031E70100293602007CB50446A1786A46BA
:10E8A0000D4803F065FF0546ADB96178C1EBC101C4
:10E8B0000A4A02EB81001C231A46694604F096F8C6
:10E8C00005460748807A074951F8202021466846C6
:10E8D0009047054600BF7CBDE4200020882700202B
:10E8E000D42700205047020070B505460C4600268C
:10E8F0000948056044B1204604F0D1FC064600BF3B
:10E900000EB1304670BD00BF0448006810B9FEF774
:10E91000D1FF06463046F5E7A4200020A8200020BD
:10E9200070B505462888102802D011282CD115E092
:10E930001748006860B900F0EBFF044600BF34B12F
:10E940001448006818B1204612490968884700BF7A
:10E950000F480068401C0E49086016E00C4800682B
:10E96000401E0B4908600846006860B9FEF7A2FF28
:10E97000044600BF34B10748006818B12046054975
:10E980000968884700BF00E000BF00BF70BD0000FD
:10E99000A8200020A420002010B5032000F046FC91
:10E9A000044600BF1CB1062C01D0204610BD00BF9C
:10E9B0000020FBE72DE9F04105460F464FF0000827
:10E9C000002400E0641C042C04D22A4850F82400DF
:10E9D000A842F7D1042C41D227B3012F02D0022F35
:10E9E0003BD133E004EB4400234911F8008004EBF1
:10E9F00044000844407868B12048006800EB80007B
:10EA000041001F4A1F480068FFF77EF906460EB90D
:10EA10001B48057004EB44001749084480781A49E4
:10EA200008551AE017480068FFF79AF91648005D84
:10EA300004EB4401104A11448978884205D104EB63
:10EA400044001146084490F8028006E004EB4400BC
:10EA50000949084490F8018000BF00BFB8F1000FD9
:10EA600006D00A48006818B1404608490968884736
:10EA7000BDE8F0810C4702003C2500208C200020DE
:10EA80009C200020084702009D20002098200020A4
:10EA900010B50246042A0ED2094B1B68D843094B15
:10EAA00013F822400123A34003400BB1012300E0EF
:10EAB00000230B7001E000200870002010BD000052
:10EAC000100500500C47020070B50546042D06D015
:10EAD000072D18D00A2D28D104F020FB26E01321A1
:10EAE0001348008876DF0446082C0BD000BF26466A
:10EAF0003EB100BF0FA240F2A5113046FEF7C7FF9E
:10EB000000BF00BF12E0FFF701FC0446082C0BD049
:10EB100000BF26463EB100BF06A240F2AD1130460E
:10EB2000FEF7B5FF00BF00BF00E000BF00BF70BD33
:10EB3000822000202E2E5C2E2E5C2E2E5C6D6169B4
:10EB40006E2E630030B503460020042B23D2012A29
:10EB500007D1012903D103F10D04E4B200E0002440
:10EB6000224679B1012902D0022911D104E003EB38
:10EB700043040A4D2A550DE003EB4304074D2C4492
:10EB8000627007E003EB4304044D2C44A27001E0E3
:10EB9000072000BF00E0072030BD00003C2500201A
:10EBA00070B5044600250548007800F0010018B152
:10EBB000204600F06DF80546284670BD90200020E4
:10EBC0002DE9F04105460E46904600242548066092
:10EBD000254805602548C0F8008005F00200F8B11E
:10EBE000002706E0012211463846FFF7ABFF044636
:10EBF0007F1C042F01D2002CF4D02CB97208042100
:10EC00001B48FEF7E3FE044614B9FEF7C9FE0446AE
:10EC10002CB9184A00211848FEF7FCFF044600BF33
:10EC200005F0010068B100BF4FF4F010134908600F
:10EC30000020091D086000BF4FF4F0100F4910318B
:10EC400008602CB90E4A00210E48FEF7E3FF044687
:10EC50002CB90D4A01210D48FEF7DCFF0446204681
:10EC6000BDE8F0818C20002090200020982000201A
:10EC70001C4702007DF20100084702000805005011
:10EC8000B1150200004702007DD9010004470200CF
:10EC90002DE9F041044600260025182C7DD2DFE83E
:10ECA00004F00C1D1E68B4EEEDECEBEAE9E8E7E6D3
:10ECB000E5E4E3E2E1E0DFDEDDDC00BFFD48016822
:10ECC0004FF4F010884300F4F010FB490860002076
:10ECD000091D086000BFF948047098E200BF00BF3A
:10ECE000F44801684FF4E010884300F4F010F24952
:10ECF00008600020091D086000BFEF48001F006881
:10ED000080F4F01000F4003088B100BF4FF4003000
:10ED1000091F08600020091D086000BF022C02D1F5
:10ED20004FF4E16001E04FF47A60054610E000BF67
:10ED30004FF40030E049091D08600020091F0860F9
:10ED400000BF022C01D1C82001E04FF4C870054675
:10ED5000DA4804706420B5FBF0F0D949096800FB7B
:10ED600001F700223946D7480068FEF7CDFF064676
:10ED70004DE200BFCF4801684FF4E010884300F433
:10ED8000F010CD4908600020091D086000BFCA4886
:10ED9000001F006880F4F01000E037E200F400305B
:10EDA00088B100BF4FF40030091F08600020091D22
:10EDB000086000BF032C02D14FF4487001E04FF40B
:10EDC0007A60054610E000BF4FF40030BA49091DD3
:10EDD00008600020091F086000BF032C01D1C82073
:10EDE00001E04FF4C8700546B44804706420B5FBD8
:10EDF000F0F0B349096800FB01F700223946B14839
:10EE00000068FEF781FF064601E200BFA9480168DD
:10EE10004FF4E010884300F4F010A7490860002088
:10EE2000091D086000BFA448001F006880F4F010AE
:10EE300000F4003020B300BF4FF40030091F086019
:10EE40000020091D086000BF042C02D14FF47A6035
:10EE500001E04FF47A60054624E0CBE1C9E1B3E17B
:10EE60009DE187E179E13FE13DE13BE139E137E1D6
:10EE70002AE105E1EDE0D3E0BBE0A1E06CE022E0B7
:10EE800000BF4FF400308C49091D08600020091FA5
:10EE9000086000BF042C02D14FF4C87001E04FF4A9
:10EEA000C8700546854804706420B5FBF0F08449BD
:10EEB000096800FB01F70022394682480068FEF726
:10EEC00023FF0646A3E100BF7A4801684FF4E01033
:10EED000884300F4F010784908600020091D08609C
:10EEE00000BF7548001F006880F4F01000F4003087
:10EEF00080B100BF4FF40030091F08600020091DD9
:10EF0000086000BF052C01D1C82001E04FF47A60F1
:10EF1000054610E000BF4FF400306749091D086046
:10EF20000020091F086000BF052C01D1C82001E0A6
:10EF30004FF4C8700546614804706420B5FBF0F0DA
:10EF40005F49096800FB01F7002239465D48006807
:10EF5000FEF7DAFE06465AE100BF564801684FF454
:10EF6000E010884300F4F010534908600020091DA8
:10EF7000086000BF5048001F006880F4F01000F4E3
:10EF8000003040B100BF4FF40030091F086000207E
:10EF9000091D086009E000BF4FF400304649091D13
:10EFA00008600020091F086000BF444804704448FE
:10EFB0000022016843480068FEF7A6FE064626E1E7
:10EFC00000BF3C4801684FF4E010884300F4F010A3
:10EFD000394908600020091D086000BF00BF4FF4D8
:10EFE000003008600020091F086000BF334804702B
:10EFF0000DE100BF3049091F08684FF480218143AB
:10F000002D4A116000F48021121D116000BF2C48B0
:10F01000002201682B480068FEF776FE0646F6E0FF
:10F0200000BF2549091F08684FF480218143224A07
:10F03000116000F48021121D116000BF204800689B
:10F0400000EB800100221F480068FEF75DFE0646C7
:10F05000DDE000BF1849091F08684FF48021814393
:10F06000154A116000F48021121D116000BF144880
:10F070000022016813480068FEF746FE0646C6E017
:10F0800000BF0D49091F08684FF4802181430A4AD7
:10F09000116000F48021121D116000BF0848006853
:10F0A00000EB8001002207480068FEF72DFE0646AF
:10F0B000ADE00000942000200805005088200020CA
:10F0C0008C2000200047020000BF4FF4F01052498E
:10F0D00008600020091F086000BF5048047096E0D7
:10F0E00000BF00BF00BF00BF4D480068FEF738FEFC
:10F0F0000646C4F111050DB306BB4FF40020494983
:10F100000860012D0FD9C82068436421B0FBF1F0DD
:10F110004549096800FB01F700223946404800686C
:10F12000FEF7F2FD064600BF3E48006800F4F0100E
:10F13000394908600020091F08600DE000BF394808
:10F14000006800F4F0103449091F08600020091D10
:10F15000086000BF3349086059E000BF4FF4F01069
:10F160002D49091F08600020091D086000BF2B48B9
:10F1700004704CE000BF4FF4E0102749091F0860FD
:10F180000020091D086000BF00BF4FF40030086078
:10F190000020091F086000BF2048047037E000BF4E
:10F1A0004FF4D0101C49091F08600020091D086099
:10F1B00000BF00BF4FF4802008600020091F0860D6
:10F1C00000BF1648047022E000BF4FF4C01012497F
:10F1D000091F08600020091D086000BF00BF4FF430
:10F1E000C02008600020091F086000BF0B480470A1
:10F1F0000DE000BF00BF4FF4F01007490860002089
:10F20000091F086000BF0548047000E000BF00BF90
:10F210003046BDE8F08100000C0500508820002039
:10F2200004470200942000208C20002030B50246C4
:10F2300000201AE00F4C54F82040A40004F1A04430
:10F24000D4F800170124844014400CB1032400E0DA
:10F250000024234621F4403141EA0341064C054D88
:10F2600055F8205044F82510401C0428E2D3002013
:10F2700030BD00000C4702000007005010B50446E6
:10F2800020780221FFF796FB10BD0000F8B5054677
:10F29000164A40F6CD410320FFF792FC044600BF1A
:10F2A00026463EB100BF12A240F212213046FEF7C0
:10F2B000EEFB00BF00BF69460020FFF715FB0446C8
:10F2C00000BF26463EB100BF09A240F215213046DC
:10F2D000FEF7DDFB00BF00BF9DF80000022801D152
:10F2E000012000E000202870F8BD0000C9EA0100FC
:10F2F0002E2E5C2E2E5C2E2E5C6D61696E2E6300B0
:10F300004FF0FF31054A42F82010082804DBFF23A4
:10F31000A0F108015032535470470000F827002034
:10F320000146024850F8210070470000F8270020ED
:10F330002DE9F04F03460C464FF0FF390AB100208B
:10F3400000E0082084460AB1082000E00C20804636
:10F35000614624E0154850F82100401CF0B91D46D4
:10F360000846274616464FFA80FBDFF840A00AF110
:10F37000300A0AF805B0DFF834A04AF820704EB918
:10F380004FFA85FBA0F1080ADFF820E00EF1500EDD
:10F390000EF80AB000BF4FFA81F902E0491C41455E
:10F3A000D8D300BF4846BDE8F08F0000F827002002
:10F3B0000146014840567047282800202DE9F84FA3
:10F3C0003A48007800EB80013848001D00EB8104CA
:10F3D000E668A06800EB4000354901EB8000B0F81A
:10F3E0000890A06800EB400001EB8000B0F80AA094
:10F3F000A06800EB400001EB80004068009003F043
:10F40000A8FAB6FBF0F100FB116008B9012000E09A
:10F4100000208046009809FB0A0760883044A188D4
:10F420004518002023490860B8F1000F04D003F00C
:10F4300090FA6188884209D0B8F1000F03D0BD422C
:10F4400001D1A08810B1A068032809D103F081FA86
:10F45000B6FBF0F018490860032003F097FE22E0A5
:10F4600003F077FAA1883144B1FBF0F200FB1210EF
:10F4700080081249086003F06CFAB5FBF0F100FB5C
:10F48000115008B9012000E000208346BD4206D09B
:10F49000BBF1000F03D1B9B2A8B204F0DDF802202D
:10F4A00003F074FE00BFBDE8F88F00007028002054
:10F4B0003C290020082100200C21002004210020EC
:10F4C00010B50848007800EB80010648001D00EBED
:10F4D00081042078042802D000F0BAF801E004F09A
:10F4E00033F810BD7028002010B50F48007800EBED
:10F4F00080010D48001D00EB810460880B49086005
:10F500002078012804D0032805D0042809D105E07B
:10F5100004F01AF806E0FFF751FF03E004F064FF7F
:10F5200000E000BF00BF10BD70280020182100209F
:10F5300010B50348407808B1FFF7D6FF10BD0000B2
:10F5400070280020002200EB8003114901F82320DD
:10F5500000EB800301EB83014A80022200EB800371
:10F560000B4901EB83018A60002200EB800308490C
:10F5700001EB8301CA6000EB8003054901EB8301C5
:10F580000A6100EB8003024901EB83018A80704726
:10F59000742800202DE9F04706460F46904699460C
:10F5A000DDF820A0204840780A2839D01E4800788D
:10F5B0001D49497844180A2C00D30A3C04EB840105
:10F5C0001948001D00F8216004EB840100EB810064
:10F5D000C0F8108004EB84011348001D00EB81008B
:10F5E000D7E90012C0E9021204EB84010E48001DA5
:10F5F00000EB8100A0F8029004EB84010A48001D92
:10F6000000EB8100A0F804A007484078401C0649A0
:10F6100048700648007808B9FFF766FF002500E04B
:10F6200004252846BDE8F08770280020002100202E
:10F6300010B50020054908704870002403E02046FA
:10F64000FFF780FF641C0A2CF9D310BD702800203E
:10F6500010B50848007800EB80020648001D00EB5A
:10F6600082010020FEF7AAFA00F006F8002003F05D
:10F670008DFD10BD7028002010B509490878FFF7EE
:10F6800061FF07484078401E0549487008460078E9
:10F69000401CC0B208700A2801D10020087010BDBB
:10F6A000702800202DE9F04782461F480068002896
:10F6B00036D01D480068056803F0A0FB07461B48CC
:10F6C00004682146384603F0EDFFC61C1848007850
:10F6D00008B903F0A5FBAE4201D2284600E030464F
:10F6E000044424F07F44204603F082FB03F086FBB1
:10F6F00080463946404603F0D5FF00F103093946FC
:10F70000204603F0CFFF814509D903F077FB8146FE
:10F7100003F06EFB2F20FCF7F5FD04F093F901E0F8
:10F7200003F09CFBBDE8F087442100204821002025
:10F730005C21002001460888062808DB0888B0F50F
:10F74000486F06DD08884FF6FF72904201D007200F
:10F7500070474888062808DB4888B0F5486F06DD02
:10F7600048884FF6FF72904201D00720F0E70888E2
:10F770004FF6FF72904208D04888904205D0088822
:10F780004A88904201DD0720E2E70020E0E72DE90A
:10F79000F04106460D46144698462088801D404597
:10F7A00002D90C20BDE8F0813046FFF7C3FF0746C1
:10F7B00000BF0FB13846F5E700BF05202188685427
:10F7C0002088401C20801220218868542088401CFA
:10F7D000208022885119308804F000FE21880844D6
:10F7E000208022885119708804F0F8FD218808448F
:10F7F00020800020D6E7000010B5044600BF03A219
:10F80000DC212046FEF743F900BF10BD2E2E5C2EF2
:10F810002E5C2E2E5C6D61696E2E630030B587B054
:10F820001C216846FCF7D5FD002000904FF42030E5
:10F8300001904FF47020029003208DF80C000020FE
:10F84000ADF80E008DF810000A4805900A480690A1
:10F850006846FEF7DBFE044600BF254635B100BF13
:10F8600006A2F3212846FEF712F900BF00BF07B039
:10F8700030BD000011250200F9F701002E2E5C2E8C
:10F880002E5C2E2E5C6D61696E2E630038B51B48B0
:10F8900001F0EAFD20BB1A48007848B119484069D8
:10F8A000E8B100200090174841696846884716E093
:10F8B0001548007810B91348456801E0114885687B
:10F8C0000022294611480068FEF71EFA044634B1AA
:10F8D0000C48806918B10B4881692046884709E0C7
:10F8E0000848406930B101200090064841696846E7
:10F8F000884700BF00200249087038BDD82000208A
:10F90000E02000206C260020D42000203C4702008C
:10F9100010B5012200210846FFF714F9044600BF84
:10F920001CB1072C01D0204610BD00BF07220221C8
:10F930000120FFF707F9044600BF1CB1072C01D0D6
:10F940002046F1E700BF042202210020FFF7FAF869
:10F95000044600BF1CB1072C01D02046E4E700BFDD
:10F960000020E1E770B503460C460820002117E0AF
:10F9700001EB41050C4E06EB8505AD7A254075B1CE
:10F980004FF6FF75AB4206D001EB410506EB85054E
:10F990002D899D4202D11160002003E00520491C01
:10F9A0000029E5D000BF70BDC8270020012100EB71
:10F9B00040020D4B03EB820291724FF6FF7100EB98
:10F9C000400203EB82021181FF2100EB400203EBB6
:10F9D0008202D17200EB40011A4602EB8101002243
:10F9E0000A608A808A717047C827002010B51A48BB
:10F9F000007800F0080058BB18480068401C174900
:10FA000008601748006818B1042003F003FE21E0E5
:10FA100001F03CFD18B1022003F0FCFD1AE0114892
:10FA2000006890B10C48007800F0010048B90A481D
:10FA3000006840F0010008490860002003F0EAFD7A
:10FA400008E0032003F0E6FD04E003F0B7FD01E069
:10FA500003F0C4FD10BD00001C2100200C2100207B
:10FA6000042100200821002010B50B48007800F088
:10FA7000080070B90848007800F0020028B1064874
:10FA8000006840F0010004490860022003F0C2FD54
:10FA900001E003F0A3FD10BD1C2100202DE9F0477B
:10FAA0008146002532E01C48006800EBC50421783F
:10FAB000012000FA01F619480068304020B31748C9
:10FAC0000068B04315490860207802F097F80746AF
:10FAD000217801208840124909680840217807FAF6
:10FAE00001F188420FD16078012800D100E00020A8
:10FAF000784080F00108606820B108F0FF012078AC
:10FB00006268904700BF00BF681CC5B20548007816
:10FB10008542C8DBBDE8F08728210020382100207D
:10FB2000342100202C2100202DE9FC4104460D4603
:10FB3000A1786A462B4802F01BFE0746002F4ED1E3
:10FB4000607800EB4000284901EB8000807A00F0EB
:10FB50004000402801D0022D01D1244E04E0012DA7
:10FB600001D1234E00E0234EA078C0EBC000224A12
:10FB700002EB800100231C226846B0470746EFB91C
:10FB8000022D1BD0607800EB4000174901EB80008C
:10FB9000807A20F04000617801EB4101124A02EBCB
:10FBA000810188726078C0EBC000144A02EB8001CA
:10FBB0001C231A466846B047074600BF022D0ED0E8
:10FBC000207800EB40000E4901EB8000807A0D495F
:10FBD00051F82020214668469047074600BFBDE8FF
:10FBE000FC810000E4200020C8270020152D020021
:10FBF000F12B0200D9340200C426002088270020FF
:10FC0000D42700204047020070B503460A4648F258
:10FC10004300002135E0C1EBC1041C4D05EB840419
:10FC2000A47EFF2C2CD11478022C18D0C1EBC10477
:10FC300005EB8404A47E24F00204C1EBC105134E3D
:10FC400006EB8505AC76C1EBC104354605EB8404B3
:10FC5000156825619588A5829579A5750DE0C1EB9C
:10FC6000C1040A4D05EB8404A47E24F00104C1EB19
:10FC7000C105064E06EB8505AC761970002002E042
:10FC8000491C0729C7D300BF70BD0000C42600204F
:10FC90002DE9F04105460E4617464FF005080024B1
:10FCA0001AE03DB9C4EBC4000E4901EB8000008BA3
:10FCB000B8420CD07DB1C4EBC4010A4A02EB810109
:10FCC00001F1100007222946FCF78EFB18B93460B9
:10FCD0004FF0000802E0641C072CE2D300BF40464E
:10FCE000BDE8F081C42600207CB50546A9B26A466D
:10FCF000074802F03DFD044644B97421684602F00D
:10FD000089FD044614B9284602F0A2FC20467CBDB9
:10FD1000E42000202DE9F04106460F46144600BFBE
:10FD200025463DB100BF05A240F2BF112846FDF7B0
:10FD3000AEFE00BF00BF0020BDE8F0812E2E5C2E7D
:10FD40002E5C2E2E5C6D61696E2E63007FB50546BC
:10FD5000039502F003FE044600BF26463EB100BFF5
:10FD600029A240F2D9113046FDF791FE00BF00BF35
:10FD700003A800F0BDFB044600BF26463EB100BF0D
:10FD800021A24FF4EE713046FDF781FE00BF00BFA7
:10FD90000020CDF805008DF809009DF8050020F041
:10FDA0000100401C8DF805009DF8050020F00200C0
:10FDB0008DF805009DF8050020F0700030308DF8BA
:10FDC00005009DF8050020F080008DF80500072152
:10FDD0008DF8061010218DF807100F4800900120B3
:10FDE0008DF8040069460D4800F034FD044600BF5C
:10FDF00026463EB100BF04A24FF4F5713046FDF730
:10FE000046FE00BF00BF7FBD2E2E5C2E2E5C2E2E28
:10FE10005C6D61696E2E630015FD0100812000207C
:10FE20002DE9F0478EB00446FF200C904FF00009FA
:10FE30004FF0000A00BFFE48007810B90EB0BDE8D0
:10FE4000F08700BF00BFFB48006800B9F6E700BFBD
:10FE50000BA800F041FB054600BF2E463EB100BF97
:10FE6000F54A40F6F1113046FDF711FE00BF00BF24
:10FE700000270025201D09902C20ADF82800FF2028
:10FE80008DF82E0000208DF82C000D902088102871
:10FE900013D0A0880DAA0221FFF764FD054665B9BD
:10FEA0000D9800EB4000E54901EB8000C07A8DF829
:10FEB0002E000D98C0B28DF82D00208819287DD015
:10FEC00008DC10280DD0112879D0132878D01428F8
:10FED00077D1C7E01A2875D01E2874D05228F7D1E0
:10FEE000C0E20DAE324601214FF6FF70FFF73AFD3A
:10FEF0008046B8F1000F08D10220316801EB4101C2
:10FF0000CE4A02EB8101887201E04FF0040800BF85
:10FF10004546002D62D14FF0010911208DF82000D7
:10FF20000D98C0B28DF82D00A0880D9901EB41010C
:10FF3000C24A02EB8101088102200D9901EB4101C7
:10FF400002EB810188720D9800EB4000114601EB35
:10FF50008001A2680A60A2898A80A07B8871E07D06
:10FF600000F0010060B1E07DB54901EB5000007880
:10FF7000FF280DD0E07D01EB500000780C9007E0E9
:10FF80004FF6FF720CA904F10800FFF781FE054649
:10FF900025BBDDE90C0101EB4101A84A02EB81011F
:10FFA000C8720D9800EB4000114601EB8000807A8A
:10FFB00040F008000D9901EB410105E01AE10EE067
:10FFC00099E05EE2E3E156E202EB810188720C986F
:10FFD000C0B28DF82E000BA8FEF75EFC52E20D9821
:10FFE00000EB4000954901EB8000807A20F0020090
:10FFF0000D9901EB4101914A02EB810188720D9844
:020000040002F8
:1000000000EB4000114601EB8000807A00F0080010
:1000100008280ED10D9800EB400001EB8000807A9B
:1000200000F0800080280FD100210BA8FFF77CFD95
:100030000AE09DF82E00FF2806D09DF82E0002F061
:1000400007FBFF208DF82E0010200D9901EB4101D8
:100050007A4A02EB810188724FF0010912208DF873
:1000600020000FE20D9800EB4000744901EB800086
:10007000C07AFF2824D1228A0CA90020FFF708FEAD
:100080000546EDB9DDE90C0101EB41016B4A02EBDC
:100090008101C8720D9800EB4000114601EB800011
:1000A000807A40F008000D9901EB410102EB8101DB
:1000B00088720C98C0B28DF82E000BA8FEF7ECFBEE
:1000C0000D9800EB40005D4901EB8000C07AFF28ED
:1000D00005D00D98C0EBC0005A4901EB800A0D997C
:1000E000C1EBC101584B03EB8102A08800235146AC
:1000F00086DF0546C6E113208DF820000D9800EB41
:1001000040004E4901EB8000807A40F004000D99D8
:1001100001EB4101494A02EB810188724FF001096C
:100120000D9800EB4000114601EB8000C07AFF28DB
:1001300042D10D9800EB400002EB80010CA8FFF7C4
:1001400063FD054665B90C98C0B28DF82E00DDE957
:100150000C0101EB4101394A02EB8101C87202E056
:100160002F464FF00109002004900D9800EB40004D
:10017000324901EB8000C07AC0EBC000324901EB8C
:10018000800105910021069107910D98C0EBC000F8
:100190002C4901EB80000090002001900290039018
:1001A000A0886B46234A121D00217FDF054615B14A
:1001B0002F464FF000091CE00D9800EB40001F494E
:1001C00001EB8000807A40F040000D9901EB410185
:1001D0001A4A02EB8101887216208DF82000A0884F
:1001E00000231A4685217FDF054615B12F464FF0C3
:1001F000000947E10F48407A20F001000D4948729C
:100200000D9800EB40000D4901EB8000807A20F052
:1002100004000D9901EB4101084A02EB810188724B
:1002200014208DF820004FF00109207A20B30DE052
:10023000F0200020D427002010480200C82700200A
:10024000F120002088270020C42600200D9800EB14
:100250004000114601EB8000807A00F04000402809
:1002600009D00D9901EB410102EB8101C87AFFF73A
:100270003BFD0646277A89E0607AC0F38000E0B350
:100280009DF82E00FF2838D00D9800EB40008C49D7
:1002900001EB8000807A40F008000D9901EB4101EC
:1002A000874A02EB81018872607BC0F3400088B10D
:1002B0009DF82E00C0EBC000824901EB8000807EDB
:1002C00020F001009DF82E10C1EBC1017D4A02EB28
:1002D000810188760D9800EB4000794901EB8000A0
:1002E000C07AFF2852D00D9800EB400011F8200092
:1002F000022827D09DF82E0000E047E0C0EBC000A8
:10030000704901EB80000D9901EB41016C4A02EB51
:1003100081010A6802618A888282897981759DF8E3
:100320002E00C0EBC000674901EB8000807E20F00A
:1003300002009DF82E10C1EBC101624A02EB81015F
:1003400088761FE00D98C0EBC0005F4901EB80008C
:10035000408A9DF82E10C1EBC1015A4A02EB81017F
:1003600008839DF82E00C0EBC000114601EB800011
:10037000807E20F001009DF82E10C1EBC10102EB40
:100380008101887601210BA8FFF7CEFB7AE0207A65
:100390000121B1EB101F43D1207A00F00F0001289A
:1003A0003ED10D9800EB4000454901EB8000807A7A
:1003B00000F00800082833D10D9901EBC101434A30
:1003C00002EB810101F108001A21FCF702F8162066
:1003D0008DF820000D9800EB4000394901EB8000BA
:1003E000807A40F020000D9901EB4101344A02EB84
:1003F000810188720D9800EB4000114601EB8000EE
:10040000807A40F040000D9901EB410102EB81013F
:1004100088722F48407A40F002002D4948721DE052
:100420000D9800EB4000264901EB8000807A40F0F7
:1004300080000D9901EB4101214A02EB8101887294
:1004400015208DF820002248807A224A52F8201088
:100450000BA8884705460DB148F2410700274FF029
:1004600001090FE01A48807A1A4A52F820100BA8A6
:100470008847074606E013208DF820004FF0010959
:1004800000E000BF00BFB9F1000F17D03A4608A93D
:100490000BA8FDF751FB9DF8200012280ED100BFDC
:1004A0000D9800EB4000064901EB8000807A01289E
:1004B00002D00D98FFF77AFA00BF00BF00BFBDE47D
:1004C000C8270020C426002088270020A427002059
:1004D000D427002060470200014611B948F20E00FF
:1004E0007047FF20087048708870C8700020F7E7D8
:1004F0007FB506461EB948F20E0004B070BD002458
:1005000012E02046002100EB4002344B43F8221059
:1005100000EB400203EB8202517200EB400203EB5E
:100520008202917200BF641C002CEAD0002403E018
:100530002046FFF73BFA641C002CF9D02421284800
:10054000FBF747FF002406E0204602F081F8FF2079
:1005500024490855641C072CF6D37420ADF80C0010
:100560000720ADF80E0020480290204902A802F0B2
:10057000B7FA054625BB01201D490870307800BB3D
:1005800000241BE0A1B26A46184802F0F1F80546C3
:100590007DB9C4EBC401174A02EB810000231C2281
:1005A000694602F023FA05463DB100201049087063
:1005B00006E000200E49087002E0641C072CE1D31D
:1005C00009E0BDF80C00BDF80E20504381B2074889
:1005D00002F020F9054628468FE70000D4270020C6
:1005E000A4270020F1200020F9050200E4200020CB
:1005F000F0200020C42600202DE9FF4F91B00F46C7
:1006000092461D46DDF8789000BF8748006810B913
:1006100015B0BDE8F08F00BFB9F1740F00D9F7E74E
:100620004FF0010B0DA8FFF757FF064600BFB0467D
:10063000B8F1000F07D000BF7C4A40F2A1514046FC
:10064000FDF725FA00BF00BF00208DF834008DF8BB
:1006500038000C95CDF82C90804614E01FFA88F1F4
:1006600008AA734802F084F8064656B9082208A979
:100670001198FBF7B9FE20B908F0FF008DF836009D
:1006800004E008F10108B8F1070FE7D300BF9DF8B7
:100690003600FF2878D0032F0AD1B9F1740F03D1A7
:1006A00020208DF838009BE040208DF8380097E03E
:1006B0006048281A1C21B0FBF1F4072C1BD20AA8B1
:1006C0000F90BAF1000F0ED19DF836000121814044
:1006D000594A1268114009B1012100E0002111B905
:1006E0004FF0000B7CE09DF8360003F081FE2020E7
:1006F0008DF8380074E05148281A1C21B0FBF1F441
:10070000F4B90AA80F9020208DF83800E0B28DF8D7
:100710003500002004904A490591C4EBC4004749C4
:1007200001EB800000909DF83600C0EBC00041490D
:1007300001EB80000190CDF830D020200B904FE0ED
:100740004048281A2421B0FBF1F4F4B930208DF888
:100750003800E0B28DF8350001208DF8370004EB49
:100760004400394901EB8000807A00F00200022841
:1007700036D09DF8351001EBC101324A02EB810001
:100780002421FBF726FE2BE04CE04FF0000B40202D
:100790008DF838002D48854203D103274FF0010B17
:1007A0001EE09DF836002A4951F82000A84217D1D2
:1007B0004FF0010B0AA80F9000200EE09DF83610B4
:1007C00000EB4002204B03EB8202D27A914203D12C
:1007D000C1B28DF8351002E0401C0028EED000BFF9
:1007E000BBF1010F1ED1032F06D19DF8380040F058
:1007F00003008DF838000EE0022F06D19DF8380076
:1008000040F001008DF8380005E09DF8380040F018
:1008100002008DF838000AA80F9052460EA90DA8C4
:10082000FDF78AF900BFF3E6D42700201048020044
:10083000E4200020C4260020EC200020882700208F
:10084000E0270020A4270020C827002070470200CE
:10085000A826002010B5024600BF2848007810B92D
:1008600048F2080010BD00BF12B948F20E00F9E7C7
:1008700011B948F20E00F5E7086810B948F20E0009
:10088000F0E71F48006898BB1D4C086820602046B0
:10089000D1F8054044604C7A04720879184CA07273
:1008A0002046007A20F0010415480472007A20F0F6
:1008B0000200801C124C20722046007A20F00404B2
:1008C0000F480472C07920F00100401C0C4CE0710C
:1008D0002046C07920F00200801CE0712046C079DB
:1008E00020F004040648C47100201070002302E0C8
:1008F000FFE748F204031846B4E70000F0200020A8
:10090000D4270020014614480078144A12789042F7
:100910001DD011480078401C0F4A10701046007816
:10092000022801D1002010700D480B4A127850F8AF
:10093000220008600B4A086812681044094A1060D7
:100940001046006820F07F401060012070470020B2
:10095000086000BFFAE70000542100205521002064
:100960004C2100204821002010B50C48007800F0F0
:10097000080078B90A480068401C0949086000F07E
:1009800085FD10B9FEF79CFD06E00648007802F0F0
:10099000FDFB01E000F072FF10BD00001C210020F3
:1009A0000C2100200021002013480078062820D1C7
:1009B0001148001D007800F00F00D0B90E48083033
:1009C000007800F0F000302801D1012070470A487B
:1009D0000830007800F0F000402801D10120F5E750
:1009E00005480830007800F0F000502801D10120BF
:1009F000ECE70020EAE70000E00F00F01348007881
:100A0000062820D11148001D007800F00F00D0B951
:100A10000E480830007800F0F000302801D10120A5
:100A200070470A480830007800F0F000402801D1F3
:100A30000120F5E705480830007800F0F000502864
:100A400001D10120ECE70020EAE70000E00F00F010
:100A50000A48007806280ED10848001D007800F0EA
:100A60000F0040B905480830007800F0F000302849
:100A700001D1012070470020FCE70000E00F00F0EA
:100A800013480078062820D11148001D007800F096
:100A90000F00D0B90E480830007800F0F000302880
:100AA00001D1012070470A480830007800F0F000BA
:100AB000402801D10120F5E705480830007800F012
:100AC000F000502801D10120ECE70020EAE7000007
:100AD000E00F00F00A48007806280ED10848001DF3
:100AE000007800F00F0040B905480830007800F0A9
:100AF000F000302801D1012070470020FCE7000001
:100B0000E00F00F013480078062820D11148001D9E
:100B1000007800F00F00D0B90E480830007800F0DF
:100B2000F000302801D1012070470A4808300078D1
:100B300000F0F000402801D10120F5E70548083019
:100B4000007800F0F000502801D10120ECE70020EF
:100B5000EAE70000E00F00F00A48007806280ED10E
:100B60000848001D007800F00F0040B90548083023
:100B7000007800F0F000302801D1012070470020FB
:100B8000FCE70000E00F00F00A48007806280ED1CC
:100B90000848001D007800F00F0040B905480830F3
:100BA000007800F0F000302801D1012070470020CB
:100BB000FCE70000E00F00F00A48007806280ED19C
:100BC0000848001D007800F00F0040B905480830C3
:100BD000007800F0F000502801D10120704700207B
:100BE000FCE70000E00F00F0F0B5034600241FE032
:100BF000124E306806689E4203D90668F61A0660EF
:100C00001AE006689B1B06683444002606600B4EFB
:100C100035680A4FC6693E60C66846B10E1926F0AF
:100C20007F464660C66886601668C661156000BF6C
:100C3000024800680028DBD100BFF0BD442100203D
:100C400070B504460D462A460021204600F00EF8F5
:100C5000A068401CA06070BD01468A68C868801A00
:100C6000704701468A68C868801A704710B5836863
:100C70000B44848823400468E35C137010BDC26891
:100C800083881A4003689954C268521CC260704736
:100C900030B504461088C01C984201D90C2030BDE4
:100CA0000220158848551088401C108001201588A6
:100CB00048551088401C108015884C551088401CE1
:100CC00010800020EBE738B500200090684601F066
:100CD00039FD0446082C02D00CB1012038BD082C87
:100CE00006D1684600F078F804460CB10020F5E71C
:100CF000009808B10120F1E70020EFE710B50446A5
:100D000014B1112C08D100E00AE00648006840F058
:100D100008000449086003E02046FCF767FF00BFB5
:100D200000BF10BD1C21002010B50D480068401CFC
:100D30000B490860B0F57A7F0DD00A480078022888
:100D400004D00848007802F021FA07E0064800784D
:100D500002F060FC02E00D20FCF748FF10BD00002F
:100D600010210020002100200121002010B50A4898
:100D70000078012804D0022808D0032809D102E015
:100D800002F0E8FB06E0FFF7EFFD03E002F036FCBF
:100D900000E000BF00BF10BD0021002070B5044678
:100DA000204628DF0546FFF7A9FF70BD2DE9F04179
:100DB00004460D46164632462946204629DF074698
:100DC000FFF79CFFBDE8F08170B504460D46E0B228
:100DD000FDF746F8204670BD014609B9032070476B
:100DE0000248406D08600020F9E70000042A002056
:100DF0003EB500BF9DF8000020F00F00401C0090A1
:100E00009DF8000020F0F0001030009000BF162286
:100E100016A168467CDF044600BF254635B100BFF9
:100E200018A2A9212846FCF732FE00BF00BF00200F
:100E3000019002905020ADF80400A020ADF806000B
:100E40000020ADF808004FF4C870ADF80A0001A802
:100E50007ADF044600BF254635B100BF09A2B321A1
:100E60002846FCF714FE00BF00BF3EBD5061746908
:100E7000656E74204D6F6E69746F72696E67204481
:100E8000657600002E2E5C2E2E5C2E2E5C6D616928
:100E90006E2E630001460020704702460020704716
:100EA00002460020704700002DE9F041044600276B
:100EB000B8460026607800EBC000374901EB80009F
:100EC000406848B3607800EB4000344901EB800093
:100ED000807A00F0800080281ED1607800EB40000E
:100EE00001EB8000807A00F04000402814D0607848
:100EF00000EBC000284901EB800000F10807607892
:100F000000EBC00001EB800080881FFA80F8607859
:100F100000EBC00051F82060617801EB41011F4AED
:100F200002EB81010889334642463946A9DF05466E
:100F30000B2D0CD10126617801EB4101174A02EB20
:100F400081010889334642463946A9DF05460DB17D
:100F500048F24105012E1BD1617801EB41010F4A96
:100F600002EB810108894FF6FF720C21A7DF0546CD
:100F700075B143F20200854208D0082D06D0801CCE
:100F8000854203D0112D01D0002501E048F2410532
:100F90002846BDE8F0810000A4270020C8270020D3
:100FA00070B505460C46617801EBC1010E4A02EBB3
:100FB000810038232422294601F018FD064686B90F
:100FC000607800EBC000084901EB80004068401CDD
:100FD00038B90020617801EBC101034A02EB8101BD
:100FE0004860304670BD0000A42700202DE9F04184
:100FF00088B007460C4603261A200790617801EB5B
:101000004101324A02EB81010889334607AA694649
:10101000AADF8046B8F1000F54D1617801EBC1011D
:101020002B4A02EB810101F10800BDF81C20694642
:10103000FBF7DAF9A0B9607800EB4000234901EB37
:101040008000807A00F0020002283BD0617801EB3A
:10105000C1011F4A02EB81002421FBF7BAF931E0FC
:10106000607800EBC0001A4901EB8000406808B1CD
:10107000184D00E0184D607800EBC000144941F8AD
:101080002060BDF81C00617801EBC101104A02EB41
:1010900081014860617801EBC10102EB810101F13E
:1010A0000800BDF81C206946FBF77AF9607800EB70
:1010B000C000074A02EB8001382324223846A847A3
:1010C000804600BF002008B0BDE8F081C82700209E
:1010D000A4270020152D0200F12B020070B5054653
:1010E0002846FFF7E1FE044614B900BF002004467D
:1010F000204670BD70B505460E4631462846FFF7BE
:101100004FFF044614B900BF00200446204670BDBE
:1011100070B505460E4631462846FFF767FF044680
:1011200014B900BF00200446204670BD2DE9F041EF
:1011300005460F46012000FA05F418480068FCF740
:101140000FFE06460EB1BDE8F0811548006820404C
:10115000E0B9284600F052FD28B11248006820434B
:101160001049086004E00F480068A0430D4908607A
:101170000B48006820430A49086000220A480168B9
:1011800006480068FCF7C0FD064604E00448006815
:10119000A0430349086000BFD5E7000008480200EB
:1011A00038210020342100203021002010B51648BD
:1011B000007800F0080018BB00F094F960B100203E
:1011C000124908601048006840F001000E490860AC
:1011D000002002F01FFA15E000F058F930B10020AD
:1011E0000A490860022002F015FA0BE0084800687E
:1011F00018B1032002F00EFA04E002F0DFF901E07A
:1012000002F0ECF910BD00001C2100200421002098
:101210000821002070B586B00546184B0FCB01ACF5
:101220000FC44FF46E40ADF81400A11C01A863DF99
:10123000044600BF26463EB100BF11A240F28D1108
:101240003046FCF724FC00BF00BF4FF6FF7028803B
:10125000AA1C05A90120A0DF044600BF26463EB116
:1012600000BF07A240F297113046FCF710FC00BF08
:1012700000BF2846FBF706FC06B070BDC046020062
:101280002E2E5C2E2E5C2E2E5C6F75725F73657237
:10129000766963652E63000030B585B004460D465F
:1012A00020884FF6FF71884216D004200490002059
:1012B0000090019002900390A08BADF800000120F7
:1012C0008DF802000020ADF8040004A802900395F8
:1012D00020886946A6DF00BF05B030BDF8B52548B7
:1012E000007800B9F8BD2448006808B9012000E082
:1012F000002005462148006808B9012000E00020D0
:10130000064600BF9DB9684652DF0446052C01D150
:1013100001250BE034B100BF194A93212046FCF7A8
:10132000B6FB03E0144900980968884700BFCEB9AE
:1013300014480088009069461348006861DF04463D
:10134000052C01D101260CE034B100BF0C4AB221BA
:101350002046FCF79CFB04E00B480068074909683D
:10136000884700BF0DB106B100E0CBE700BF00BF6A
:10137000B8E700006C2100207C21002078210020AB
:101380005C48020074210020702100207FB50546D2
:101390000C4694F8210094F82010CDE9001004F1D7
:1013A0002602D11E2846E36902F087FC00B17FBD0A
:1013B00094F8230048BB207B022802D0207B03281E
:1013C00023D1E169206981421FD16069E061E07B3E
:1013D00084F82000207EC0F3401084F82100207B98
:1013E00003280AD194F82100009094F8203029466F
:1013F0002046E26902F0F2FC33E094F820302946FE
:101400002046E26902F0E2FB2BE0D4E90412E06836
:1014100001AB07C394F82300A0B100BFD5F8C414F2
:10142000C5F8C41400BF084600F0020119B101213B
:101430008DF8001005E000F0040111B102218DF8D3
:10144000001002E000208DF80000002084F8240045
:10145000207E00F0040018B96846D4E900219047C6
:1014600000BF00BFA3E7000001464888064A128873
:10147000904206DB4888044A5288904201DC0120F1
:1014800070470020FCE70000CC2000202DE9F0414F
:101490001148007800EB80010F48001D00EB81052A
:1014A000EF6801F056FA69883944AA881144491E48
:1014B000B1FBF0F609480068B04206D3074800685F
:1014C000B04204D10648006808B9012400E00024B5
:1014D0002046BDE8F0810000702800200C2100208B
:1014E000082100202DE9F0410F48007800EB800131
:1014F0000D48001D00EB8105EE6801F02AFA6988AD
:101500003144AA881144491EB1FBF0F7074800682E
:1015100028B107480068B84201D1012400E0002446
:101520002046BDE8F081000070280020082100203E
:101530000C210020014601F0030008B9012070478A
:101540000020FCE730B504461088C01C984201D941
:101550000C2030BD0220158848551088401C108092
:101560001C20158848551088401C1080012C06D07E
:10157000022C08D0032C0AD0042C10D10BE0002040
:10158000158848550DE001201588485509E00220CE
:101590001588485505E003201588485501E00720C7
:1015A000D7E700BF1088401C10800020D1E7000062
:1015B00010B504460448007800F0010018B1034853
:1015C0000078FDF765FB10BD9020002088200020EA
:1015D0002DE9F0412148D0F80080214806782FE01D
:1015E0002048006800EBC604257825E005EB45019E
:1015F000606800EBC107681CC5B2A078A84200D1A2
:1016000000253878022802D0032812D103E0786838
:1016100002F0EEF80EE007E01049086800210174BE
:101620000E4AC169116000BF0C4800680028F3D160
:1016300000E000BF00BF00BF6078A842D6D100BF65
:10164000301EA6F10101CEB2CAD10448006840455F
:1016500002D00120BDE8F0810020FBE744210020FA
:101660003C210020402100202DE9F04706463B4860
:10167000D0F800903A48077861E03A48006800EBFB
:10168000C70555E016B13446E66923E02A7802EB37
:101690004202696801EBC2002978491C2970297847
:1016A000AA78914201D1002129704468017801296A
:1016B00001D1217C01B13BE081686160C168A1601A
:1016C0000169E1604169A1612749097809B10021F7
:1016D000616000BF254960680968401A20F07F40BA
:1016E0002349884208D221496068096801F0DAFF7D
:1016F000A1680844206010E01C486168006801F09F
:10170000D1FF8046A068404504D9A068A0EB08003E
:10171000206001E00020206000BF00206060A06029
:10172000012020740020E061204602F02DF800BF67
:10173000002EA7D1287869788842A3D100BF381E2F
:10174000A7F10101CFB298D104480068484502D002
:101750000120BDE8F0870020FBE7000044210020C5
:101760003C210020402100205D2100204821002054
:10177000FFFF7F0008B502F031FC4FF4FA7000F073
:1017800032F926A0FBF732FE02F062F96846FDF757
:101790007DFDFCF7FBFF9DF80000FEF7D7FAFFF791
:1017A00027FB01F0AFFCFCF7AFF8FEF737F81DA000
:1017B000FBF71CFE4FF4FA7000F015F9FBF71EFC66
:1017C0004FF4FA7000F00FF9FBF7CEFB1AA0FBF70D
:1017D0000DFEFBF705FB4FF4FA7000F004F9FBF780
:1017E0003FFA19A0FBF702FEFCF77FFB0320FCF792
:1017F000C9FD044600BF25463DB100BF16A240F218
:101800007E212846FCF743F900BF00BF16A0FBF776
:10181000EDFD00BF00F07EFFFCE700005374617235
:10182000740D0A00426173696320696E6920646FF8
:101830006E650D0A0000000048525320696E6974FD
:101840002066696E650D0A0041434320696E697424
:101850002066696E650D0A002E2E5C2E2E5C2E2EE3
:101860005C6D61696E2E6300457865637574696FA0
:101870006E20537461727465640D0A0010B50548DA
:10188000006820F00800034908600348007801F070
:101890007DFC10BD1C210020002100202DE9F0411D
:1018A00005460E4614469846A888871C2088801C4A
:1018B0003844404502D90C20BDE8F081FE2F01D903
:1018C0000C20F9E7781C218870542088401C208067
:1018D000FF20218870542088401C20802288911984
:1018E000288802F07BFD218808442080A8880028F1
:1018F0000DDDA86808B90720DEE7AA8823889819B3
:10190000A968FAF74DFD2088A988084420800020A6
:10191000D2E72DE9F84F05460F4614469846287839
:10192000012804D1687810B90720BDE8F88F208815
:10193000801C404508D82878012807D12088801CC1
:1019400069780844404501D90C20EEE72088A8EBCF
:101950000000801E86B200962188891CC81969463D
:101960007DDF814600BFB9F1000F01D04846DCE7BA
:1019700000BF2878022806D1BDF80000B04202DC82
:101980004FF0090A0BE04FF0080A2878012805D12A
:101990006878B04202DC6878009000E00096BDF8FC
:1019A0000000FE2801D90C20BFE7BDF80000401C54
:1019B000218878542088401C2080208807F800A0C7
:1019C0002088401C20802088BDF80010084420801A
:1019D0000020AAE701460020704702460020704719
:1019E00002460020704701B506E00098401E0090B6
:1019F00040F2E730FAF70EFC00980028F5D108BD58
:101A000070B50B4601461A46002907DA5407260E20
:101A1000104C01F00F052D1F665503E05407250EED
:101A20000D4C655400BF00BF00F01F020121914022
:101A30000A4A440942F8241000BF00BF00F01F0208
:101A4000012191404209920002F1E022C2F8001106
:101A500000BF70BD18ED00E000E400E080E200E0AF
:101A60000146C1F3073250B2704700002DE9F0473C
:101A700005460E46284600F02BFEF8B12846FDF735
:101A800097FC083824490F5CBC11032C0BD100BF14
:101A9000224800680121A940084008B1032000E065
:101AA0000220804605E0012C01D1022000E0032045
:101AB00080464146284600F00DFC2AE0284600F00A
:101AC00013FE30B32846FDF773FC0446A00000F572
