:020000040000FA
:1000000098420020050500000D0500000F050000C6
:100010001105000013050000150500000000000098
:1000200000000000000000000000000017050000B4
:1000300019050000000000001B0500001D05000060
:100040001F0500001F0500004D0E0000A90B000059
:100050001F0500001F0500001F0500001F05000010
:100060001F0500001F0500001F0500001F05000000
:100070001F0500001F0500001F0500001F050000F0
:100080001F0500001F0500001F0500001F050000E0
:100090001F0500001F0500001F0500001F050000D0
:1000A0001F0500001F0500001F0500001F050000C0
:1000B0001F0500001F0500000000000000000000F8
:1000C0001F0500001F0500001F0500001F050000A0
:1000D0001F0500001F0500001F05000000000000B4
:1000E0000000000000000000000000000000000010
:1000F0000000000000000000000000000000000000
:1001000000000000000000000000000000000000EF
:1001100000000000000000000000000000000000DF
:10040000DFF80CD000F0A2FA004800472D1B0000D6
:1004100098420020401E00BF00BF00BF00BF00BFC9
:1004200000BF00BF00BF00BF00BF00BF00BF00BFD4
:1004300000BF00BF00BF00BF00BF00BF00BF00BFC4
:1004400000BF00BF00BF00BF00BF00BF00BF00BFB4
:1004500000BF00BF00BF00BF00BF00BF00BF00BFA4
:1004600000BF00BF00BF00BF00BF00BF00BF00BF94
:1004700000BF00BF00BF00BF00BF00BF00BF00BF84
:1004800000BF00BF00BFC5D170470000401E00BFC5
:1004900000BF00BF00BF00BF00BF00BF00BF00BF64
:1004A00000BF00BF00BF00BF00BF00BF00BF00BF54
:1004B00000BF00BF00BF00BF00BF00BF00BF00BF44
:1004C00000BF00BF00BF00BF00BF00BF00BF00BF34
:1004D00000BF00BF00BF00BF00BF00BF00BF00BF24
:1004E00000BF00BF00BF00BF00BF00BF00BF00BF14
:1004F00000BF00BF00BF00BF00BF00BF00BFC5D12D
:10050000704700000648804706480047FEE7FEE7C0
:10051000FEE7FEE7FEE7FEE7FEE7FEE7FEE7FEE7B3
:10052000B90B00000104000040EA01039B0703D05F
:1005300009E008C9121F08C0042AFAD203E011F822
:10054000013B00F8013B521EF9D2704730B50B4613
:10055000014600202022012409E021FA02F59D42F3
:1005600005D303FA02F5491B04FA02F52844151EC7
:10057000A2F10102F1DC30BD2DE9F05F054600205B
:1005800092469B4688460646814640241BE0284604
:1005900041464746224600F0FAF953465A46C01AE9
:1005A000914110D311461846224600F0E1F92D1A68
:1005B00067EB01084F4622460120002100F0D8F9E0
:1005C00017EB00094E41201EA4F10104DFDC484670
:1005D00031462A464346BDE8F09F2DE9FE4F80464E
:1005E00081EA0300C00F0C46009021F0004123F087
:1005F0000045B8EB0200A94105D24046214690468D
:100600001C460B46024623F00040104347D0270DFE
:10061000C7F30A00C3F30A510290401A0190402820
:100620006BDAC3F3130040F4801B0098924620B1AC
:100630000023D2EB030A63EB0B0B01985946C0F180
:100640004002504600F094F906460D465046594681
:10065000019A00F0ACF910EB08006141002487EA30
:10066000115284EAE7731A4340D0009A62B3019AA8
:10067000012A4FEA075215DC001B61EB02014FF023
:10068000004202EA0752CDE90042001C41F5801108
:1006900032462B4600F0ACF903B0BDE8F08F40467F
:1006A0002146F9E7001B61EB0201001C41F58013B4
:1006B00000185B412018A2F5001747EB030140EA40
:1006C000D570B6196D4111E06D084FEA360645EA5E
:1006D000C0754FEA0752001B61EB0201001C41F597
:1006E000801149084FEA30000019514132462B462B
:1006F00003B0BDE8F04F00F06CB900980122400053
:100700000023D0EB020263EBE073009821464FEA2E
:10071000E074B8EB000061EB0401E9E783F000430B
:100720005BE781F0004158E72DE9FE4F81EA0304C1
:1007300004F0004421F0004100944FF0000B23F03E
:10074000004350EA01045ED052EA03045BD0C3F3D5
:100750000A54C1F30A552C44A4F2F3340194A0FBCB
:100760000254C1F3130141F48011C3F3130343F4A2
:10077000801301FB024400FB034E840A970A44EAFB
:10078000815447EA8357A4FB076802958D0A05FB4D
:1007900007854FEA932C04FB0C542705029D4FEA72
:1007A000065847EA1637B5EB08056EEB070C870EBF
:1007B000920E47EA811742EA8312A7FB0201B6EBC9
:1007C0000B0164EB00042B0D43EA0C335E1844EB81
:1007D0001C50DA465146E7FB0201C5F313044FEA09
:1007E0000B3343EA14534FEA0432019C43EA0603F5
:1007F000A4F10C040294009CCDE900B400F0F8F8D8
:1008000003B0BDE8F08F00200146F9E72DE9F04D77
:1008100081EA030404F0004B21F0004514464FF038
:10082000000A23F0004150EA050220D054EA0102F8
:100830001DD0C5F30A570246C5F31303C1F31300D5
:10084000C1F30A5640F4801543F48013A7EB060861
:10085000101BD64608F2FD3873EB050002D308F1F1
:10086000010801E092185B41B8F1000F03DA0020A3
:100870000146BDE8F08D00204FF480110646844605
:100880000EE0171B73EB050705D3121B63EB050383
:1008900006434CEA010C49084FEA300092185B41CC
:1008A00050EA0107EDD152EA030012D082EA0400B7
:1008B00083EA0501084305D0101BAB4106D2012293
:1008C000002306E000224FF0004302E06FF0010237
:1008D00053101AEB06004CEB085110EB0A0041EBE9
:1008E0000B01BDE8F04D00F074B8C1F30A52C1F33A
:1008F000130140F2FF3341F480119A4202DA0020E2
:100900000146704740F233439A42A2F2334202DC7E
:10091000524200F03CB800F02BB8000030B5041E85
:1009200071F1000404DB4FF00044404264EB01012C
:10093000141E73F1000405DB1C464FF000435242C5
:1009400063EB0403994208BF904230BD064C074D4B
:1009500006E0E06840F0010394E80700984710348F
:10096000AC42F6D3FFF750FD40280000602800009D
:10097000202A04DB203A00FA02F10020704791405F
:10098000C2F1200320FA03F3194390407047202A54
:1009900004DB203A21FA02F00021704721FA02F329
:1009A000D040C2F120029140084319467047202AE6
:1009B00006DBCB17203A41FA02F043EAE07306E087
:1009C00041FA02F3D040C2F1200291400843194697
:1009D000704710B5141E73F1000408DA401C41F191
:1009E000000192185B411A4301D120F0010010BDB3
:1009F0002DE9F04D92469B4611B1B1FA81F202E029
:100A0000B0FA80F220329046FFF7B2FF04460F465C
:100A100040EA0A0041EA0B0153465A46084313D004
:100A2000114653EA010019D0C8F140025046FFF7C1
:100A3000AEFF05460E46504659464246FFF798FF20
:100A4000084305D0012004E020463946BDE8F08D7A
:100A50000020054346EAE0762C4337430A986305B5
:100A6000E40AA0EB08000022FD0A44EA47540A30D9
:100A700002D500200146E9E7010510196941DDE9C9
:100A8000084500196941BDE8F04DA2E72DE9F0479E
:100A9000062001F08BF805460421572000F0C2F92A
:100AA00006460621572000F0BDF9301AC7B2B8003B
:100AB00001F07CF800268046B14616E0072000F0E1
:100AC00061F806232A4657210E4801F02FF9E878ED
:100AD00069F31F6460F31744287960F30F24687981
:100AE00060F3070448F82640761CBE42E6DB08EBBC
:100AF000870050F8044C404600F02CFF2046BDE82B
:100B0000F0870000C02700001CB502238DF8040008
:100B100000208DF80510009001AA5721044801F02B
:100B200017F908B100F020FEC82001F075F81CBDCF
:100B3000C027000010B570210820FFF7E5FF07214E
:100B40000920FFF7E1FF27210A20FFF7DDFF1F2122
:100B50000C20FFF7D9FF1F210D20FFF7D5FF1F2124
:100B60000E20FFF7D1FF1F211020FFF7CDFF12212C
:100B70001120FFF7C9FF0021BDE810401220FFF748
:100B8000C3BF00001CB501238DF8040000200090B5
:100B900001AA5721034801F0DBF8002801D000F03A
:100BA000E3FD1CBDC02700000149024800F0FABE69
:100BB000400000200030004070B58D480023021D29
:100BC0000178101D0124062907D115782D0704D1BD
:100BD0000578C5F30315032D02D0062904D00FE0D4
:100BE000854E844D75670EE015782D0708D1057880
:100BF000C5F30315032D06D0042D04D0052D02D016
:100C0000062909D010E04FF08055D5F844527B4EAC
:100C1000C5F34235356002E015782D0704D105781B
:100C2000C5F30315032D02D0062906D011E0744D3B
:100C30002E6826F080762E600EE015782D0708D1FC
:100C40000578C5F30315032D06D0042D04D0052D1A
:100C500002D006290AD011E04FF08045C5F80C31CA
:100C6000C5F81031654D2D1F2B6002E015782D075A
:100C700004D10578C5F30315032D02D0062905D04C
:100C80000CE05E4A0321643211600AE015782D07FA
:100C900004D10578C5F30315032D02D006290DD024
:100CA0006AE0584A05211160564978310C6055496F
:100CB00008310B603F21121D116002E01178090715
:100CC0005AD10078C0F30310052855D14E4800686A
:100CD0004E4908604C48001D0068091D08604A48DC
:100CE00008300068091D086047480C300068091D7D
:100CF0000860454810300068091D086042481430FB
:100D00000068091D08604048183000683F492031DC
:100D100008603D481C300068091D08603A482030D2
:100D20000068091D0860384824300068091D086003
:100D3000354828300068091D086033482C300068A9
:100D4000091D086030483030006830494031086083
:100D50002D4834300068091D08602B483830006881
:100D6000091D086028483C300068091D08602648B5
:100D700040300068091D086021487438016841F45A
:100D800070010160BFF34F8FBFF36F8F4FF01021E1
:100D9000D1F80002002803DBD1F80402002822DA8F
:100DA0001B4A14601B480468002CFCD01524C1F8B1
:100DB00000420568002DFCD0C1F8044201680029FA
:100DC000FCD0136001680029FCD0BFF34F8F0C48A2
:100DD000F0380168104A01F4E06111430160BFF38B
:100DE0004F8F00BFFDE70E490C48086070BD000042
:100DF000E00F00F00DF0ADBA00C007403C05004028
:100E0000FCED00E0105600400404001020C5004036
:100E100004E5014000E401400400FA050090D0031D
:100E20001400002038B504460846FFF7ABFE012346
:100E30006A462146044800F079FF08B100F094FCAE
:100E40009DF8000038BD0000C02700000348007F67
:100E500008B101F049BC01F0C3BB000068000020EC
:100E6000014B024A00F0D6B84719000008000020E4
:100E700002E008C8121F08C1002AFAD17047704763
:100E8000002001E001C1121F002AFBD170470000C1
:100E90002DE9FF5F82B00021DDE90430020DDDF8AD
:100EA00040B0034318D044F61050A2F2FF32424340
:100EB0001514119801281FD0A5EB0B00401C5FEA08
:100EC000000A4FF000064E4FDFF83891B04650460A
:100ED00015D5CAF1000413E0119801244AA3012892
:100EE00001D16FEA0B010298119AC0E90031C0E903
:100EF000024206B0BDE8F09FCBF10000DFE70446F8
:100F00000021404A491842EB0450CDE9001012E09C
:100F1000E00707D032463B4640464946FFF704FC0F
:100F20008046894632463B4610461946FFF7FCFB91
:100F300006460F466410002CEAD1DDE90401DDE924
:100F40000023BAF1000F06DAFFF7EEFB42464B46EC
:100F5000FFF7EAFB05E0FFF759FC42464B46FFF777
:100F600055FC04460E460022284BFFF7D7FC03D859
:100F70004FF0FF30014607E00022254B2046314666
:100F8000FFF72BFBFFF7B1FC102409E0002C0ADB74
:100F90000A220023FFF7F0FA039B30321A55641E31
:100FA00050EA0102F2D1641C039AC4F11103144403
:100FB000119A012A03D0012208430DD10AE0084307
:100FC00004D000204FF0110B119072E7A3EB0B053A
:100FD0006D1E0DE05B4504DD4FF0000205F10105DB
:100FE00004E003DA4FF00002A5F10105002AECD07D
:100FF00002981199C0E90231C0E9004579E7000083
:10100000000014400000F03F300000000000F043FA
:101010000000E03F2DE9FF4F95B09B46894606460C
:1010200000250FE2252877D100242746F84A012120
:10103000059400E0044316F8013F203B01FA03F059
:101040001042F7D130782A2811D06FF02F03307872
:10105000A0F13002092A16D8059A44F0020402EBE6
:10106000820203EB42021044761C0590EFE759F828
:10107000042B0592002A03DA504244F400540590F0
:1010800044F00204761C30782E2816D116F8010F91
:1010900044F004042A280DD06FF02F023078A0F11C
:1010A0003003092B09D807EB870302EB4303C7186A
:1010B000761CF3E759F8047B761C30786C280FD047
:1010C00006DC4C2817D068280DD06A2814D104E01B
:1010D000742810D07A280FD10DE044F400140AE0EF
:1010E00044F4801401E044F440147278824202D146
:1010F00004F58014761C761C307866280BD013DC3F
:10110000582877D009DC002875D04528F6D0462825
:10111000F4D047281AD19DE118E0632835D064281F
:1011200079D0652812D195E1702873D008DC672842
:10113000F1D069286FD06E280DD06F2806D1B5E0A8
:1011400073282CD0752875D0782874D05A461799F2
:1011500090476D1C75E1C4F30250022809D00328A2
:101160000DD0D9F8001004280DD00D6009F1040944
:1011700067E1D9F80010EA17C1E90052F6E7D9F89B
:1011800000100D80F2E70D70F0E719F8041B8DF8E0
:10119000001000208DF80100EA46012003E059F814
:1011A00004AB4FF0FF3061074FF0000102D40DE0B7
:1011B00008F101018846B9420FDA8045F8DB1AF8D8
:1011C00008100029F4D108E008F1010188468142A5
:1011D000FADB1AF808100029F6D105985B46A0EB57
:1011E000080721463846179A00F094FA284400EB85
:1011F000080507E04DE029E10DE01AF8010B5A4619
:1012000017999047B8F10108F7D25B462146384656
:10121000179A13E142E00A220092C4F302524FF0FF
:10122000000A022A08D059F804CB032A4FEAEC71CD
:101230000AD00DE029E02AE009F1070121F00702B8
:10124000F2E802C1914609E00FFA8CFC4FEAEC711A
:10125000042A03D14FFA8CFC4FEAEC71002907DA1B
:101260000A460021DCF1000C61EB02012D2202E0B4
:10127000220504D52B228DF80420012203E0E20789
:1012800001D02022F7E7904659E00A2102E010221F
:101290000DE010214FF0000A00910BE010224FF0FA
:1012A000000A44F004040827009203E008224FF0EB
:1012B000000A0092C4F30252022A05D059F804CB66
:1012C0000021032A08D009E009F1070121F00702F3
:1012D000F2E802C1914605E01FFA8CFC042A01D114
:1012E0000CF0FF0C4FF00008220728D5702806D01C
:1012F000009B83F0100353EA0A0305D00EE040225E
:101300008DF80420012208E05CEA010206D03022B8
:101310008DF804208DF8050002229046009B83F092
:10132000080353EA0A030AD15CEA010201D1620709
:1013300005D530228DF804204FF001087F1E582873
:1013400004D034A003900EA802900DE036A0F9E777
:1013500053466046009AFFF70FF984460398825C73
:101360000298401E029002705CEA0100F0D10298DF
:1013700006A9081A00F1200A600702D524F4803477
:1013800000E00127574502DDA7EB0A0000E000203E
:1013900000EB0A01009005984144401A0590E003D3
:1013A00006D45B462146179A059800F0B3F9054428
:1013B000002706E001A85A46C05D179990476D1CAA
:1013C0007F1C4745F6DBE0030CD55B462146179AA8
:1013D000059800F09FF9054404E030205A4617991B
:1013E00090476D1C0099481E00900029F5DC08E02C
:1013F000029802995A460078491C02911799904721
:101400006D1CBAF10001AAF1010AF1DC65E10000EE
:1014100009280100303132333435363738396162CA
:10142000636465660000000030313233343536378E
:1014300038394142434445460000000000F058F965
:101440000544761C307800287FF4ECAD19B02846AE
:10145000BDE8F08F620700D4062709F1070222F0E9
:10146000070CFCE80223E14603F000485FEA080CA1
:1014700002D00FF2702C0DE05FEA045C02D50FF28F
:10148000682C07E05FEAC47C02D00FF2602C01E018
:10149000AFF2700C4FF0FF3823F00043CDF850C08E
:1014A00065280CD006DC452809D046281DD04728E1
:1014B0003DD13DE0662818D067287ED138E0002174
:1014C000112F01DB112000E0781CCDE9000106A9F5
:1014D0000EA8FFF7DDFCDDE90F010E9A0391002154
:1014E000009207F1010A04914DE04FF0004000978F
:1014F000CDE9011006A90EA8FFF7CAFCDDE90F022D
:1015000003920E9B11990022DDF80CA00093049227
:1015100011B9791C00EB010AB7EB0A0004D4C0F141
:10152000FF3007F1010A0490AAEB0700019044E0A4
:10153000012F00DA01270021112F01DD112000E029
:101540003846CDE9000106A90EA8FFF7A1FCDDE9A8
:101550000F010E9A0391002104910092BA462107CF
:101560000CD40399514500DA8A46BAF1010F05DD22
:10157000009AAAF10101515C302908D0B84202DA80
:1015800010F1040F06DA0121CDE9011015E0AAF1EE
:101590000101E9E7002805DC049901440491AAEB64
:1015A000000102E0411C514500DD8A460499401AC1
:1015B000401C01904FF000400290200704D4019895
:1015C000504501DBCDF8048000208DF84F000298D3
:1015D0000DF14F07B0F1004F25D02B200E9002984F
:1015E0004FF0020800280CDA404202902D200E90A5
:1015F00007E00A210298FEF7A9FF3031029007F8B0
:10160000011DB8F10001A8F10108F2DC02980028E0
:10161000EFD1791E0E980870307800F0200040F06D
:10162000450007F8020D12A8C01B00F10708149826
:10163000007800B1012000EB0A01019801EBE07194
:1016400005984144401A401E0590E00306D45B46CD
:101650002146179A059800F05DF805441498007823
:1016600018B15A46179990476D1CE00324D55B4684
:101670002146179A059800F04DF805441CE004989F
:10168000002807DBDDE90301884203DD0098405CA8
:10169000179901E0179930205A469047049805F1B0
:1016A0000105401C04900198401E019004D12E2099
:1016B0005A46179990476D1CBAF10001AAF1010A28
:1016C000DDDC05E017F8010B5A46179990476D1CB1
:1016D000B8F10001A8F10108F4DC5B462146179A35
:1016E0000598ABE62D0000002B0000002000000054
:1016F0002DE9F041044600251E461746880404D40F
:1017000005E039462020B0476D1C641EF9D52846F7
:10171000BDE8F0812DE9F041044600251E469046C3
:10172000C80301D5302700E02027880404D505E050
:1017300041463846B0476D1C641EF9D52846BDE8C1
:10174000F0810000BFF34F8F05480168054A01F49E
:10175000E06111430160BFF34F8F00BFFDE7000060
:101760000CED00E00400FA050EB500210091CDE972
:1017700001106A4644F20100FFF7E4FF0EBD10B508
:101780008268C368934203D000F0CAF8002010BDFD
:10179000052010BD29B112B1531E134203D00920F8
:1017A00070470E2070470160838000218160C16016
:1017B0000846704710B58268C3689A1A83889A42AF
:1017C00003D800F0B7F8002010BD042010BD0000C1
:1017D00070B50446234888B01E460D00426035D0DF
:1017E000A888296882B22048FFF7D4FF00282ED1AC
:1017F000A889A96882B21C481030FFF7CBFF0028E7
:1018000025D1202219496846FEF78EFEA068069071
:10181000207900B101208DF814008DF81C606079EA
:1018200000B10E208DF81500E0780290A0780390AA
:1018300020780190607800900D49684600F0ACFA7D
:10184000002804D19DF81D0018B104E0072008B05D
:1018500070BD00F031FB03480121401C00F0E6FAA6
:10186000F5E700000000002020000020D82700003D
:101870003925000010B501460948FFF79BFF040019
:101880000CD100F047FC48B906490548FFF777FF3F
:1018900020B90121034800F0B5FB0446204610BDE5
:1018A00030000020000000202DE9F04104460078BF
:1018B000184F012606FA00F03860206800F04CFC52
:1018C0000021606800F03FFC1348144D007FA069C0
:1018D000C5F82405607D217D0843C5F86C05D4E971
:1018E0000001C5F80C05C5F81415207D01280FD19D
:1018F0000021A06800F027FC207B86403E60E06865
:1019000000F02AFCD4E90201C5F80815C5F8100555
:10191000BDE8F0810805005068000020002000406C
:10192000826883881A4003689A5C0A708168491C3F
:1019300081607047C26883881A4003689954C168FF
:10194000491CC160704710B50446C0B2FFF792FF52
:10195000204610BD10B5002821D0114B0022001FD9
:10196000196803E0814203D80A4649680029F9D181
:1019700052B11368841A9C4204D100681844106064
:10198000104602E0506000E0186039B102680B1A9E
:10199000934203D10B681A4402604968416010BD4C
:1019A000180000202DE9FF470D4604464FF49271C0
:1019B00000F0E4FB01274FF002084FF48279002683
:1019C00030B1C4F824614946204600F0D7FB70B31B
:1019D0004946204600F0D2FB01004FF0FF3039D0DD
:1019E000C4F8046105F10C010DF104090EC989E880
:1019F0000E0095F8231079B1297B012924D0D4F861
:101A00004C15C9B28DF80610297B02291FD0D4F8D5
:101A10004C15C9B28DF80710C4F86061C4F85C6158
:101A200095F8251091B395F8231079BB34E0FFE7C2
:101A3000A868C4F80803C5F80880A868C4F80403B7
:101A400027626761BDE8FF87D4F83C15D9E7D4F871
:101A50003C15DEE7C4F84861297B69B14FF4007199
:101A6000C4F80012891CA960C4F80803A868C4F867
:101A70000403A7602762E5E705F10C010DF10409F5
:101A80000EC989E80E0095F8251029B90021C4F87F
:101A90000012AE60C4F80803D4F8C404C4F8C40447
:101AA000810702D58DF8007006E0400702D58DF859
:101AB000008001E08DF8006095F8250008B985F8F0
:101AC0002460D5E9002168469047BBE730B50E4C4D
:101AD00087B0207810B1002007B030BD0B4A04ABAE
:101AE000012507CA83E8070007480623401CCDE903
:101AF00000050748029068020390064A694604A858
:101B0000FFF766FE2570E7E70C0000203428000090
:101B100088000020252500000FB410B503A9029805
:101B2000FFF79EF910BC5DF814FB0000FFF7CEFF35
:101B30000CA0FFF7F1FF00F0C3FB10A0FFF7ECFFD4
:101B4000FEF7F8FF12A0FFF7E7FF4FF4FA7400BFAB
:101B5000FEF79CFF014614A0FFF7DEFF204600F0D1
:101B60005BF8F5E7526561642066726F6D204D4148
:101B70005833303130350D0A0000000020545749E9
:101B800020696E697469616C697A65642E0D0A005A
:101B9000436F6E66696775726174696F6E20646FFA
:101BA0006E650D0A0000000025640000F0B50B30E2
:101BB000154D20F007010024144A0FE003688B4202
:101BC0000BD38B4205D95E1A43184768C3E90067F7
:101BD00000E04368136002C004E0021D10680028A2
:101BE000ECD12046002802D1286808B10020F0BDC1
:101BF000064A07481060074A121A22F00702C0E995
:101C0000002401202860D7E71C00002018000020D5
:101C10009C0200209822002031B540F2E73404E015
:101C2000401E00902046FEF7F5FB00980028F7D1F3
:101C300038BD4907090E002806DA00F00F0202F14C
:101C4000E02282F8141D03E000F1E02282F8001483
:101C500000F01F02012191404009800000F1E020C6
:101C6000C0F88012C0F8001170470121B1EB507F1D
:101C700001D1012070470020704700000179064A19
:101C800001EB8101006802EBC1010622C0F80025CA
:101C9000022081F8220070474000002070B50646FF
:101CA00000790D461F4C00EB800104EBC10494F851
:101CB000221009B1082070BD15B91B4901EB0015B0
:101CC0000020C4E90023A06084F8250084F82400E3
:101CD0002946304600F09CFA296840F20C608900E1
:101CE00001F1A041C1F800076968890001F1A04134
:101CF000C1F80007D5E900123068C0F80815C0F82F
:101D00000C25A968C0F82415206828B13068297B03
:101D1000000B40B2FFF78DFF012084F82200002065
:101D200070BD000040000020F82700003EB5074DC0
:101D30002C69AD6900948DF80110019202958DF81F
:101D400002300022694600F015F83EBDF827000079
:101D50003EB500250095069C8DF8011002958DF882
:101D6000023001920CB1202200E00022694600F00E
:101D700001F83EBD30B40379064C03EB830304EB5A
:101D8000C304006813460A460146204630BC00F0F2
:101D9000ADBA0000400000202DE9F0411E4C07467E
:101DA0000D46E07E10B10820BDE8F08107B91B4F59
:101DB000787F20773846FFF777FD656038692060C7
:101DC0002800174E4FF0000516D0397F207F48B10C
:101DD000C6F81051C6F82051C6F82451C6F844512F
:101DE000104804E0C6F81C51C6F844510E48C6F825
:101DF00004030220FFF71DFF207F08B1082000E048
:101E00000420C6F80005E5752576A5750120E07665
:101E1000A5760020C8E70000680000201428000014
:101E20000020004010030200800002002DE9F04174
:101E30001F4B1C7F3CB14FF40052B2EB104F02D04D
:101E40001020BDE8F081D3F804C00022194D4FF4F2
:101E500004764FF40177BCF1000F05D014B1C5F83A
:101E6000086301E0C5F8087393F817E0BEF1000FAE
:101E700010D01A7E52B1BCF1000F05D014B1C5F8D4
:101E8000046301E0C5F804731120DAE71861012248
:101E9000197604E0D9750025D8605D761D761CB1F1
:101EA000BDE8F04100F066B8BDE8F04100F014B8BC
:101EB000680000200020004010B5064C207F00285C
:101EC00006D1A07E002803D100F096F90120A0766B
:101ED00010BD0000680000202DE9F05F234DA87EB2
:101EE000104301D100F088F9214C686830B14FF4FB
:101EF0000170C4F804030020BDE8F09F4FF0000912
:101F00004FF4A27AC4F844914FF4927BA846594604
:101F1000204600F038F905464FF48471204600F061
:101F200032F907465146204600F02DF9064647EAA9
:101F300006012943EBD055EA060007D100F034F939
:101F400098F8171098F819008142E0D888F817908F
:101F50000DB10320D0E70EB10F20CDE798F81A108D
:101F6000012009B12060C6E76060C4E76800002076
:101F7000002000402DE9F05F204C00264FF48873CC
:101F8000C4F810614FF4A275C4F84461C4F8340574
:101F9000C4F838158AB1D4F8000240F02000C4F823
:101FA0000002DFF85C80D8F8040048B14FF40470F8
:101FB000C4F804030020BDE8F09F01202060F0E792
:101FC0009A46A9464FF4927B5146204600F0E6F827
:101FD00005464946204600F0E1F8074659462046A6
:101FE00000F0DCF83D430543EED088F8176008B1F7
:101FF0000320E0E7002FDDD00F20DCE700200040C9
:10200000680000202DE9F047204D0246287F38B1B6
:102010004FF40050B0EB124F02D01020BDE8F08713
:1020200000F078F808B11120F8E7A9750023AA603C
:10203000AB82287F28B3164C00264FF49070984648
:10204000C4F820314FF4AC73C4F85881C4F8442567
:10205000C4F848150121A160696881B98246994692
:102060005146204600F09AF807464946204600F0BF
:1020700095F80743F4D000B10F2685F81680304656
:10208000CCE7BDE8F04700F005B80000680000208C
:10209000002000402DE9F05F1C4F00254FF48E7AA0
:1020A0002E46C7F81C514FF00108C7F8088000F011
:1020B00015FA174CB815616879B123E05F465146AF
:1020C000484600F060F810B9A08AB842F7D1A08A5B
:1020D000B84204D000F002FA01E08346B946A08A73
:1020E000A17D8842EAD3A08A584501D10F2508E096
:1020F0004F465146384600F046F80028F9D0C7F858
:102100000C80A6752846BDE8F09F00000020004026
:10211000680000200248807D002800D00120704720
:102120006800002030B541EA4201DDE9034541EA9B
:102130008301800041EA042100F1A04041EA054109
:10214000C0F8001730BD1CB500220B4600921146A6
:102150000192FFF7E7FF1CBD1CB5002100910B4663
:10216000012201911146FFF7DDFF1CBD01218140D5
:1021700001480160704700000805005040580028E1
:1021800000D0012070474058002800D0012070473F
:10219000D0F80403084000D00120704740580028C0
:1021A00000D001207047000009480A490022C37D81
:1021B000C1F8082143B1D1F81815437EC268D15443
:1021C000417E491C41767047D1F8180570470000E0
:1021D00068000020002000401FB501228DF8080093
:1021E00004488DF800200191D0E90012684690471C
:1021F0001FBD00006800002004480021C0F8241121
:10220000C0F8081101210160704700000020004063
:102210002DE9F0410C46096840F20C60890001F19B
:10222000A041C1F800076168890001F1A041C1F82F
:1022300000072068FFF79AFF6068FFF797FF2168A3
:1022400040F20D60890001F1A041C1F8000761680A
:10225000890001F1A041C1F800070420FEF716F93A
:10226000DFF8588000250126A8F104072079D8F866
:102270000010C14011F0010F02D0002D1BD00FE063
:10228000207806FA00F038600420FEF7FFF8206896
:10229000FFF76CFF0420FEF7F9F86D1C092DE5DB54
:1022A000207986403E600420FEF7F0F86068BDE8C3
:1022B000F041FFF75BBFBDE8F08100001005005062
:1022C0001FB5094B0FCB8DE80F00074800231A46B6
:1022D00069460838FFF7E2FC08B1FFF745FA024803
:1022E0000838FFF7CBFC1FBDC82700002DE9F84FC9
:1022F0000646002000901F4615460C464FF0080B7E
:102300004FF4827A5068FFF7B0FC00287DD04FF080
:10231000FF30C4F8080396F8240028B1B068C4F868
:1023200004031120BDE8F88F780703D4F80601D420
:10233000012000E0002086F8240095E8070006F15F
:102340000C0383E80700C7F3001086F825006878BF
:10235000C4F888054FF00009C4F80491C4F824912A
:10236000F8074FF0010801D0404600E04846C4F8A5
:102370005005B80701D5404600E04846C4F840057E
:102380002A784FF4A47140F20220EAB3012A73D0F4
:10239000022A45D0032A13D007200090380704D41E
:1023A0002878032801D044F80B80306870B3780790
:1023B00002D54FF40070B060B068C4F8040389E03F
:1023C000A868FFF752FC00B34FF48070C4F8000215
:1023D000A9786868C4F84405C4F84815C4F8509151
:1023E000C4F86091C4F84891C4F82080C4F808800B
:1023F0004FF4A8712046FFF7C1FE0028F8D0C4F8BA
:102400005091E878A96802E01BE007E042E0C4F8D8
:102410004415C4F848053048B060BFE7102081E794
:10242000AA786968C4F84415C4F84825EA78A96808
:10243000C4F83415C4F838254FF48451C4F8001298
:10244000EAE7AA786B68C4F84435C4F84825BA06A8
:1024500009D54FF48070C4F800021F48B060C4F87A
:1024600048918A4604E04FF40071C4F80012B0604D
:10247000C4F8208092E7FFE7A9786A68C4F8342599
:10248000C4F838154FF48051C4F80012B0604FF012
:10249000000BEDE74D4647464FF482794FF49278B2
:1024A00009E041462046FFF769FE20B1C4F82451F7
:1024B00027626761CA4651462046FFF75FFE002843
:1024C000EFD0D4F8C404C4F8C40486F8245008B18A
:1024D00003200090009825E700020400064A00202F
:1024E000C2F81C010548838A8168C95C838A5B1C29
:1024F0008382C2F81C15704700200040680000204D
:102500001FB500218DF8080005488DF8001082687D
:1025100001928175D0E90012684690471FBD000006
:10252000680000200178022901D0012902D1406809
:10253000FFF71AB9704700007CB50178264D0129D4
:1025400009D002292CD0002929D129462348FFF798
:1025500016F980B334E04068017820481038FFF75E
:1025600029F91E4C103C20B101218DF8001001907A
:1025700007E0A068E168081A012805D100208DF85D
:102580000000696868468847A068E168081AA18861
:10259000884204D810480121401CFFF747FC7CBD4D
:1025A00002218DF80010C06801900B480121401CE9
:1025B000FFF73CFC0CE0FFE701210748FFF722FD95
:1025C00006488168C0688842E9D103208DF8000080
:1025D0006968684688477CBD000000203000002004
:1025E0002DE9FF413E4D4FF400712846FFF7D0FD25
:1025F00001273C4C4FF40178002600B34FF4927150
:102600002846FFF7C0FDD0B1C5F82461C5F808839E
:10261000A07E00B96F6002208DF80000D5F880041C
:10262000C5F880040390E07D8DF80800E068019013
:10263000E6752676D4E900126846904724E0042126
:102640002846FFF7A5FDF8B14FF484712846FFF73F
:102650009AFDC8B1FFF7A8FDE07D617E884213D1E5
:10266000227E3AB1607EE168E2752269E2602676F8
:10267000667607E0A07E00B96F60C5F80883E6754E
:10268000607EE168FFF7A8FD4FF48E712846FFF7E2
:102690007AFD58B1A18AA07D814202D2FFF71EFFC8
:1026A00004E0C5F81C6108B1FFF72AFF4FF4A271DE
:1026B0002846FFF768FD00280FD0C5F84461A07ECA
:1026C00000B12F60E07D002807D0E675607EE168EC
:1026D00004B0BDE8F041FFF77FBDBDE8FF81000019
:1026E00000200040680000207FB5334C4FF4927109
:1026F0002046FFF753FD314D0026B0B1C4F82461E8
:1027000002208DF80000D4F88004C4F880040390FF
:10271000D4F83C058DF80800E8680190EE752E7637
:10272000D5E90012684690471FE04FF488712046B3
:10273000FFF734FDC8B1C4F81061D4F83C05E97D59
:10274000C0B2814211D12A7E5AB1E968D4F8003270
:1027500023F02003C4F80032EA752A69EA602E7675
:1027600001E0EE75E968FFF737FD4FF4A2712046EE
:10277000FFF714FD50B1C4F84461E87D30B1EE7547
:10278000D4F83C05E968C0B2FFF726FD4FF490711C
:102790002046FFF703FD00280CD0C4F82061A87D77
:1027A000002807D0D4F84C0504B0C0B2BDE8704092
:1027B000FFF7A6BE7FBD000000200040680000209B
:1027C00000300040000100001A000000020000007C
:1027D0000000980102000000060000000800000050
:1027E00007000000050000000000000000000000DD
:1027F0000000D601060000001B0000001A000000C7
:102800000000980106000000010000000000000028
:1028100000000000060000000800000007000000A3
:102820000500000000000000000000000000D601CC
:1028300006000000080605070100000000E0D701BF
:10284000602800000000002020000000700E000042
:10285000802800002000002078420000800E000048
:102860000000000000000000000000000000000068
:10287000000000000090D0030000000000000000F5
:0400000500000401F2
:00000001FF
